:020000040000FA
:0400000007EF00F016
:0A0008005F828DED26F088EF2FF0E7
:1008000000496E65727469616C207265763A0045C4
:100810006E61626C65205049443A00434350523146
:100820004C6D696E3A00446972656374696F6E3A23
:1008300000506C616E74286B293A00496E657274C1
:1008400069616C3A0043435052314C3A00252E31D5
:100850006600252E336600494E46004E414E006923
:100860006E66006E616E004B443A004B493A004B95
:0B087000503A0053503A006C66000044
:10087C009FEC32F0949094928290828214EC32F03D
:10088C009580958295849586730EE8CF50F2080E6C
:10089C00E8CF51F2C9C052F2CAC053F2CBC054F2E5
:1008AC00CCC055F2000EE8CF56F2000EE8CF57F24E
:1008BC00A00EE8CF58F2400EE8CF59F2000EE8CF68
:1008CC005AF2000EE8CF5BF2800EE8CF5CF23F0EDE
:1008DC00E8CF5DF2000EE8CF5EF2000EE8CF5FF2DB
:1008EC00B40EE8CF60F2430EE8CF61F2000EE8CF11
:1008FC0062F2000EE8CF63F2000EE8CF64F2000E55
:10090C00E8CF65F2000EE8CF66F2000EE8CF67F292
:10091C006F0EE8CF68F2080EE8CF69F2C5C06AF234
:10092C00C6C06BF2C7C06CF2C8C06DF2CD0EE8CF7A
:10093C006EF2CC0EE8CF6FF2CC0EE8CF70F23D0E1B
:10094C00E8CF71F2CD0EE8CF72F2CC0EE8CF73F295
:10095C00CC0EE8CF74F23D0EE8CF75F2000EE8CF66
:10096C0076F2000EE8CF77F2200EE8CF78F2410E47
:10097C00E8CF79F2000EE8CF7AF2000EE8CF7BF2E6
:10098C00000EE8CF7CF2000EE8CF7DF2000EE8CF2F
:10099C007EF2000EE8CF7FF26B0EE8CF80F2080EED
:1009AC00E8CF81F2ACC082F2ADC083F2AEC084F26B
:1009BC00AFC085F2CD0EE8CF86F2CC0EE8CF87F231
:1009CC00CC0EE8CF88F23D0EE8CF89F2CD0EE8CF01
:1009DC008AF2CC0EE8CF8BF2CC0EE8CF8CF23D0E27
:1009EC00E8CF8DF2000EE8CF8EF2000EE8CF8FF23A
:1009FC00200EE8CF90F2410EE8CF91F2000EE8CF36
:100A0C0092F2000EE8CF93F2000EE8CF94F2000EB3
:100A1C00E8CF95F2000EE8CF96F2000EE8CF97F2F1
:100A2C00670EE8CF98F2080EE8CF99F2A8C09AF2B8
:100A3C00A9C09BF2AAC09CF2ABC09DF2CD0EE8CF30
:100A4C009EF2CC0EE8CF9FF2CC0EE8CFA0F23D0E7A
:100A5C00E8CFA1F2CD0EE8CFA2F2CC0EE8CFA3F2F4
:100A6C00CC0EE8CFA4F23D0EE8CFA5F2000EE8CFF5
:100A7C00A6F2000EE8CFA7F2200EE8CFA8F2410EA6
:100A8C00E8CFA9F2000EE8CFAAF2000EE8CFABF245
:100A9C00000EE8CFACF2000EE8CFADF2000EE8CFBE
:100AAC00AEF2000EE8CFAFF2450EE8CFB0F2080E72
:100ABC00E8CFB1F2BE500101006F016B026B036B0A
:100ACC00000E96EC27F0010100C1B2F201C1B3F2A5
:100ADC0002C1B4F203C1B5F2000EE8CFB6F2000EBB
:100AEC00E8CFB7F2A00EE8CFB8F2400EE8CFB9F2DB
:100AFC00000EE8CFBAF2000EE8CFBBF2800EE8CFC2
:100B0C00BCF23F0EE8CFBDF2000EE8CFBEF2000EF5
:100B1C00E8CFBFF2480EE8CFC0F2430EE8CFC1F2E7
:100B2C00000EE8CFC2F2000EE8CFC3F2000EE8CF01
:100B3C00C4F2000EE8CFC5F2000EE8CFC6F2000EEC
:100B4C00E8CFC7F2260EE8CFC8F2080EE8CFC9F2FC
:100B5C00000EE8CFCAF2000EE8CFCBF2000EE8CFC1
:100B6C00CCF2000EE8CFCDF2000EE8CFCEF2000EA4
:100B7C00E8CFCFF2800EE8CFD0F23F0EE8CFD1F223
:100B8C00000EE8CFD2F2000EE8CFD3F2800EE8CF01
:100B9C00D4F23F0EE8CFD5F2000EE8CFD6F2000E1D
:100BAC00E8CFD7F2800EE8CFD8F23F0EE8CFD9F2DB
:100BBC00000EE8CFDAF2000EE8CFDBF2000EE8CF41
:100BCC00DCF2000EE8CFDDF2000EE8CFDEF2000E14
:100BDC00E8CFDFF20F0EE8CFE0F2080EE8CFE1F23B
:100BEC00000EE8CFE2F2000EE8CFE3F2000EE8CF01
:100BFC00E4F2000EE8CFE5F2000EE8CFE6F2000ECC
:100C0C00E8CFE7F2800EE8CFE8F23F0EE8CFE9F24A
:100C1C00000EE8CFEAF2000EE8CFEBF2800EE8CF40
:100C2C00ECF23F0EE8CFEDF2000EE8CFEEF2000E44
:100C3C00E8CFEFF2800EE8CFF0F23F0EE8CFF1F202
:100C4C00000EE8CFF2F2000EE8CFF3F2000EE8CF80
:100C5C00F4F2000EE8CFF5F2000EE8CFF6F2000E3B
:100C6C00E8CFF7F21B0EE8CFF8F2080EE8CFF9F256
:100C7C00D1C000F1D2C001F1000E01BFFF0E026F16
:100C8C00036F010E96EC27F0010100C1FAF201C1CD
:100C9C00FBF202C1FCF203C1FDF2000EE8CFFEF242
:100CAC00000EE8CFFFF2800EE8CF00F33F0EE8CF46
:100CBC0001F3000EE8CF02F3000EE8CF03F3800E31
:100CCC00E8CF04F33F0EE8CF05F3000EE8CF06F3B0
:100CDC00000EE8CF07F3480EE8CF08F3430EE8CF39
:100CEC0009F3000EE8CF0AF3000EE8CF0BF3000E69
:100CFC00E8CF0CF3000EE8CF0DF3000EE8CF0EF3A7
:100D0C00000EE8CF0FF33B0EE8CF10F3080EE8CF40
:100D1C0011F3CFC000F1D0C001F1000E01BFFF0EE6
:100D2C00026F036F010E96EC27F0010100C112F364
:100D3C0001C113F302C114F303C115F3000EE8CF84
:100D4C0016F3000EE8CF17F3800EE8CF18F33F0E22
:100D5C00E8CF19F3000EE8CF1AF3000EE8CF1BF31F
:100D6C00800EE8CF1CF33F0EE8CF1DF3000EE8CF4A
:100D7C001EF3000EE8CF1FF3480EE8CF20F3430E0E
:100D8C00E8CF21F3000EE8CF22F3000EE8CF23F3D7
:100D9C00000EE8CF24F3000EE8CF25F3000EE8CFC9
:100DAC0026F3000EE8CF27F3010EE8CF28F3080E48
:100DBC00E8CF29F3CDC000F1CEC001F1000E01BF88
:100DCC00FF0E026F036F010E96EC27F0010100C1BC
:100DDC002AF301C12BF302C12CF303C12DF3000E36
:100DEC00E8CF2EF3000EE8CF2FF3800EE8CF30F3D0
:100DFC003F0EE8CF31F3000EE8CF32F3000EE8CF10
:100E0C0033F3800EE8CF34F33F0EE8CF35F3000E0A
:100E1C00E8CF36F3000EE8CF37F3480EE8CF38F3BF
:100E2C00430EE8CF39F3000EE8CF3AF3000EE8CFCB
:100E3C003BF3000EE8CF3CF3000EE8CF3DF3000E81
:100E4C00E8CF3EF3000EE8CF3FF3310EE8CF40F38E
:100E5C00080EE8CF41F3C1C042F3C2C043F3C3C094
:100E6C0044F3C4C045F3CD0EE8CF46F3CC0EE8CF27
:100E7C0047F3CC0EE8CF48F33D0EE8CF49F30A0E0A
:100E8C00E8CF4AF3D70EE8CF4BF3230EE8CF4CF361
:100E9C003C0EE8CF4DF3000EE8CF4EF3000EE8CF3A
:100EAC004FF3200EE8CF50F3410EE8CF51F3CD0EA7
:100EBC00E8CF52F3CC0EE8CF53F3CC0EE8CF54F37B
:100ECC003D0EE8CF55F3000EE8CF56F3000EE8CFF9
:100EDC0057F3800E376F250E386F000E396F000EEA
:100EEC003A6FF1EC2EF083A07EEF07F080EF07F065
:100EFC0082EF07F00001D49B83B087EF07F089EFF6
:100F0C0007F0B2EF07F00001D4BB8FEF07F091EFC1
:100F1C0007F0B2EF07F0D48B060E0101B46F130E7D
:100F2C00B36FAD0EE82EFED7B32FFCD7B42FFAD784
:100F3C0000D00101CB51CC11D8A4A7EF07F0A9EF39
:100F4C0007F0AFEF07F0000ECC6F0A0ECB6FB2EFCD
:100F5C0007F0CB07D8A0CC0783A2B7EF07F0B9EF07
:100F6C0007F0BBEF07F00001D49983B2C0EF07F094
:100F7C00C2EF07F0EBEF07F00001D4B9C8EF07F0B0
:100F8C00CAEF07F0EBEF07F0D489060E0101B46F3E
:100F9C00130EB36FAD0EE82EFED7B32FFCD7B42FC4
:100FAC00FAD700D00A0E0101CB19CC11D8A4E1EF6D
:100FBC0007F0E3EF07F0E9EF07F0000ECC6F000E3F
:100FCC00CB6FEBEF07F0CB4BCC2B0101C951CB19FD
:100FDC0009E1CA51CC19D8B4F6EF07F0F8EF07F0D5
:100FEC00FEEF07F0B0EC32F0CBC1C9F1CCC1CAF1C5
:100FFC0083A403EF08F005EF08F007EF08F00001F9
:10100C00D49783B40CEF08F00EEF08F030EF09F032
:10101C000001D4B714EF08F016EF08F030EF09F028
:10102C00D487060E0101B46F130EB36FAD0EE82E0C
:10103C00FED7B32FFCD7B42FFAD700D0CBC100F119
:10104C00CCC101F1000E0101036F180E026F8BEC85
:10105C0032F0520E01010025D96E020E0121DA6E1A
:10106C00DECF19F1DECF1AF1DECF1BF1DECF1CF192
:10107C00CBC100F1CCC101F1000E036F180E026F51
:10108C008BEC32F05E0E01010025D96E020E0121AF
:10109C00DA6EDECF1DF1DECF1EF1DECF1FF1DECF1B
:1010AC0020F1A4EC2BF00101D8B05FEF08F061EF58
:1010BC0008F0B5EF08F0CBC100F1CCC101F1000E86
:1010CC00036F180E026F8BEC32F0520E01010025EB
:1010DC00D96E020E0121DA6ECBC100F1CCC101F147
:1010EC00000E036F180E026F8BEC32F0520E0101E2
:1010FC000025E16E020E0121E26EE6CF27F1E6CF6C
:10110C0028F1E6CF29F1E6CF2AF1CBC100F1CCC111
:10111C0001F1000E036F180E026F8BEC32F05A0EB9
:10112C0001010025E16E020E0121E26EE6CF2BF1EA
:10113C00E6CF2CF1E6CF2DF1E6CF2EF141EC13F0FA
:10114C00010127C1DEFF28C1DEFF29C1DEFF2AC154
:10115C00DEFFCBC112F1CCC113F1DAEC23F083A486
:10116C00BAEF08F0BCEF08F0BEEF08F00001D49520
:10117C0083B4C3EF08F0C5EF08F030EF09F00001BD
:10118C00D4B5CBEF08F0CDEF08F030EF09F0000E3E
:10119C000101B96F21EF09F0090EB919D8B4D9EFD3
:1011AC0008F0DBEF08F0E9EF08F0030E0101B46F73
:1011BC00080EB36F770EE82EFED7B32FFCD7B42FE3
:1011CC00FAD71FEF09F00001D485060E0101B46FA8
:1011DC00130EB36FAD0EE82EFED7B32FFCD7B42F82
:1011EC00FAD700D0CBC100F1CCC101F1000E010146
:1011FC00036F180E026F8BEC32F0660E01010025A6
:10120C00D96E020E0121DA6E010EDF6ECBC100F138
:10121C00CCC101F1000E036F180E026F8BEC32F093
:10122C00670E01010025D96E020E0121DA6E010E46
:10123C00DF6E0101B92B0A0EB96127EF09F029EF16
:10124C0009F030EF09F083A42EEF09F030EF09F02C
:10125C00D2EF08F083A435EF09F037EF09F064EF13
:10126C0009F0CBC100F1CCC101F1000E0101036FFB
:10127C00180E026F8BEC32F0670E01010025D96E4F
:10128C00020E0121DA6EDF50D8B44FEF09F051EFA6
:10129C0009F064EF09F0CBC100F1CCC101F1000EF3
:1012AC00036F180E026F8BEC32F0660E01010025F5
:1012BC00D96E020E0121DA6E000EDF6E83A669EF85
:1012CC0009F06BEF09F06DEF09F00001D49383B6D0
:1012DC0072EF09F074EF09F096EF0AF00001D4B345
:1012EC007AEF09F07CEF09F096EF0AF0D483060E42
:1012FC000101B46F130EB36FAD0EE82EFED7B32FF2
:10130C00FCD7B42FFAD700D0CBC100F1CCC101F17E
:10131C00000E0101036F180E026F8BEC32F0620E9F
:10132C0001010025D96E020E0121DA6EDECF19F112
:10133C00DECF1AF1DECF1BF1DECF1CF1CBC100F1F9
:10134C00CCC101F1000E036F180E026F8BEC32F062
:10135C00520E01010025D96E020E0121DA6EDECF8C
:10136C001DF1DECF1EF1DECF1FF1DECF20F1A4EC9C
:10137C002BF00101D8B0C5EF09F0C7EF09F01BEF56
:10138C000AF0CBC100F1CCC101F1000E036F180EB5
:10139C00026F8BEC32F0520E01010025D96E020E59
:1013AC000121DA6ECBC100F1CCC101F1000E036F4B
:1013BC00180E026F8BEC32F0520E01010025E16E1B
:1013CC00020E0121E26EE6CF37F1E6CF38F1E6CF1F
:1013DC0039F1E6CF3AF1CBC100F1CCC101F1000EED
:1013EC00036F180E026F8BEC32F05A0E01010025C0
:1013FC00E16E020E0121E26EE6CF3BF1E6CF3CF14D
:10140C00E6CF3DF1E6CF3EF158EC31F0010137C1AA
:10141C00DEFF38C1DEFF39C1DEFF3AC1DEFFCBC1D2
:10142C0012F1CCC113F1DAEC23F083A620EF0AF011
:10143C0022EF0AF024EF0AF00001D49183B629EFD1
:10144C000AF02BEF0AF096EF0AF00001D4B131EF5D
:10145C000AF033EF0AF096EF0AF0000E0101BA6FB2
:10146C0087EF0AF0090EBA19D8B43FEF0AF041EF32
:10147C000AF04FEF0AF0030E0101B46F080EB36FC0
:10148C00770EE82EFED7B32FFCD7B42FFAD785EF03
:10149C000AF00001D481060E0101B46F130EB36F74
:1014AC00AD0EE82EFED7B32FFCD7B42FFAD700D051
:1014BC00CBC100F1CCC101F1000E0101036F180E7C
:1014CC00026F8BEC32F0660E01010025D96E020E14
:1014DC000121DA6E010EDF6ECBC100F1CCC101F13E
:1014EC00000E036F180E026F8BEC32F0670E0101C9
:1014FC000025D96E020E0121DA6E000EDF6E01019D
:10150C00BA2B0A0EBA618DEF0AF08FEF0AF096EF44
:10151C000AF083A694EF0AF096EF0AF038EF0AF07F
:10152C0083A69BEF0AF09DEF0AF0CAEF0AF0CBC13D
:10153C0000F1CCC101F1000E0101036F180E026F16
:10154C008BEC32F0670E01010025D96E020E0121E1
:10155C00DA6EDF50D8A4B5EF0AF0B7EF0AF0CAEF95
:10156C000AF0CBC100F1CCC101F1000E036F180ED3
:10157C00026F8BEC32F0660E01010025D96E020E63
:10158C000121DA6E000EDF6ECBC100F1CCC101F18E
:10159C00000E0101036F180E026F8BEC32F0660E19
:1015AC0001010025D96E020E0121DA6EDF50D8B48C
:1015BC00E2EF0AF0E4EF0AF09EEF0CF0CBC100F181
:1015CC00CCC101F1000E036F180E026F8BEC32F0E0
:1015DC00670E01010025D96E020E0121DA6EDF5073
:1015EC00D8B4FBEF0AF0FDEF0AF0E8EF0BF0CBC13B
:1015FC0000F1CCC101F1000E036F180E026F8BECE1
:10160C0032F0520E01010025D96E020E0121DA6E64
:10161C00DECF19F1DECF1AF1DECF1BF1DECF1CF1DC
:10162C00CBC100F1CCC101F1000E036F180E026F9B
:10163C008BEC32F05E0E01010025D96E020E0121F9
:10164C00DA6EDECF1DF1DECF1EF1DECF1FF1DECF65
:10165C0020F1A4EC2BF00101D8B037EF0BF039EFEF
:10166C000BF092EF0CF0CBC100F1CCC101F1000EEC
:10167C00036F180E026F8BEC32F0520E0101002535
:10168C00D96E020E0121DA6EDECF27F1DECF28F102
:10169C00DECF29F1DECF2AF1CBC100F1CCC101F1B3
:1016AC00000E036F180E026F8BEC32F0560E010118
:1016BC000025D96E020E0121DA6EDECF2BF1DECFC2
:1016CC002CF1DECF2DF1DECF2EF141EC13F027C142
:1016DC00BBF128C1BCF129C1BDF12AC1BEF1CBC1FE
:1016EC0000F1CCC101F1000E0101036F180E026F65
:1016FC008BEC32F05E0E01010025D96E020E012139
:10170C00DA6EDECF19F1DECF1AF1DECF1BF1DECFB0
:10171C001CF1BBC11DF1BCC11EF1BDC11FF1BEC18D
:10172C0020F1A4EC2BF00101D8B09FEF0BF0A1EF4E
:10173C000BF0CDEF0BF0CBC100F1CCC101F1000EE1
:10174C00036F180E026F8BEC32F05E0E0101002558
:10175C00D96E020E0121DA6ECBC100F1CCC101F1C0
:10176C00000E036F180E026F8BEC32F0520E01015B
:10177C000025E16E020E0121E26EDECFE6FFDECF28
:10178C00E6FFDECFE6FFDECFE6FF92EF0CF0CBC13B
:10179C0000F1CCC101F1000E036F180E026F8BEC3F
:1017AC0032F0520E01010025D96E020E0121DA6EC3
:1017BC00BBC1DEFFBCC1DEFFBDC1DEFFBEC1DEFFB3
:1017CC0092EF0CF0CBC100F1CCC101F1000E036F14
:1017DC00180E026F8BEC32F0620E01010025D96EEF
:1017EC00020E0121DA6EDECF19F1DECF1AF1DECF57
:1017FC001BF1DECF1CF1CBC100F1CCC101F1000E0D
:10180C00036F180E026F8BEC32F0520E01010025A3
:10181C00D96E020E0121DA6EDECF1DF1DECF1EF184
:10182C00DECF1FF1DECF20F1A4EC2BF00101D8B0FC
:10183C0022EF0CF024EF0CF092EF0CF0CBC100F186
:10184C00CCC101F1000E036F180E026F8BEC32F05D
:10185C00520E01010025D96E020E0121DA6EDECF87
:10186C0037F1DECF38F1DECF39F1DECF3AF1CBC133
:10187C0000F1CCC101F1000E036F180E026F8BEC5E
:10188C0032F0560E01010025D96E020E0121DA6EDE
:10189C00DECF3BF1DECF3CF1DECF3DF1DECF3EF1D2
:1018AC0058EC31F037C1BBF138C1BCF139C1BDF1D5
:1018BC003AC1BEF10101BEBF68EF0CF066EF0CF04F
:1018CC00CDEF0BF0CBC100F1CCC101F1000E036FD9
:1018DC00180E026F8BEC32F0620E01010025D96EEE
:1018EC00020E0121DA6ECBC100F1CCC101F1000E68
:1018FC00036F180E026F8BEC32F0520E01010025B3
:10190C00E16E020E0121E26EDECFE6FFDECFE6FFD6
:10191C00DECFE6FFDECFE6FF030E0101B46F080E4B
:10192C00B36F770EE82EFED7B32FFCD7B42FFAD7B0
:10193C00CD0E0101046F010E056F3A0E066F080EF5
:10194C00076F54EC30F0CD0E01010E6F010E0F6FCE
:10195C00CBC100F1CCC101F1000E036F180E026F68
:10196C008BEC32F0500E01010025D96E020E0121D4
:10197C00DA6EDECF10F1DDCF11F177EC32F0CBC1A6
:10198C0000F1CCC101F1000E0101036F180E026FC2
:10199C008BEC32F0520E01010025D96E020E0121A2
:1019AC00DA6EDECFB5F1DECFB6F1DECFB7F1DECF3A
:1019BC00B8F1DD0EA16F010EA26F520EA36F080ECF
:1019CC00A46FB5C1A5F1B6C1A6F1B7C1A7F1B8C155
:1019DC00A8F10BEC31F0CD0E01010E6F010E0F6F63
:1019EC00DD0E106F010E116F77EC32F0000E01015D
:1019FC00046FCD0E056F010E066F010E42EC2FF039
:101A0C00CD0E0101A16F010EA26F4D0EA36F080E3A
:101A1C00A46FB6C000F1B7C001F1000E01BFFF0EFC
:101A2C00026F036F010E96EC27F000C1A5F101C106
:101A3C00A6F102C1A7F103C1A8F10BEC31F0000E25
:101A4C000101046FCD0E056F010E066F020E42EC04
:101A5C002FF0CD0E0101A16F010EA26F4D0EA36FE1
:101A6C00080EA46FB4C000F1B5C001F1000E01BFA7
:101A7C00FF0E026F036F010E96EC27F000C1A5F16B
:101A8C0001C1A6F102C1A7F103C1A8F10BEC31F021
:101A9C00060E0101046FCD0E056F010E066F020ECE
:101AAC0042EC2FF079EF07F007EF00F0000E010188
:101ABC00666F000E656F41C177F142C178F143C189
:101ACC0079F144C17AF17ABF70EF0DF06EEF0DF041
:101ADC0086EF0DF0000E666F010E656F77C100F199
:101AEC0078C101F179C102F17AC103F1DAEC31F07C
:101AFC0000C177F101C178F102C179F103C17AF12A
:101B0C00000E01017E6F000E7D6FC5C16AF1C6C16A
:101B1C006BF165516611D8A496EF0DF098EF0DF0AE
:101B2C00A0EF0DF00001B0A59EEF0DF0A0EF0DF0B1
:101B3C00BBEF0DF0010165516611D8A4A8EF0DF0B3
:101B4C00AAEF0DF0B0EF0DF0000E506F2B0E4F6F93
:101B5C00B4EF0DF0000E506F2D0E4F6F4FC100F211
:101B6C007D4B7E2B6A07D8A06B0777C100F178C13B
:101B7C0001F179C102F17AC103F127EC2CF00101DA
:101B8C0000050111D8A4CDEF0DF0CFEF0DF026EF2D
:101B9C000EF0BF0E466FFF0E476F4551486F496BF5
:101BAC00465148274751492349510AE11A0E485DCD
:101BBC00D8A0E3EF0DF0E6EF0DF0010EE7EF0DF01E
:101BCC00000E516F526B51515211D8B4F0EF0DF011
:101BDC00F2EF0DF000EF0EF0000E7D25046F020EFB
:101BEC007E21056F570E066F080E076F54EC30F010
:101BFC000CEF0EF0000E7D25046F020E7E21056F9A
:101C0C005F0E066F080E076F54EC30F00101FD0EED
:101C1C006A27FF0E6B233FC110F140C111F1000E7A
:101C2C000101126F020E136F6AC114F16BC115F131
:101C3C0013EC2DF010C13FF111C140F140EF13F046
:101C4C0077C100F178C101F179C102F17AC103F1D8
:101C5C0027EC2CF0010100510111D8A438EF0EF043
:101C6C003AEF0EF079EF0EF0BF0E466FFF0E476F96
:101C7C004551486F496B46514827475149234951B3
:101C8C000AE11A0E485DD8A04EEF0EF051EF0EF09F
:101C9C00010E52EF0EF0000E536F546B5351541152
:101CAC00D8B45BEF0EF05DEF0EF06BEF0EF0000EA4
:101CBC007D25046F020E7E21056F5B0E066F080EEC
:101CCC00076F54EC30F00CEF0EF0000E7D25046F16
:101CDC00020E7E21056F630E066F080E076F54EC23
:101CEC0030F00CEF0EF0000E7F6F000E806F800E48
:101CFC00816F3F0E826F000E7C6F000E7B6F77C181
:101D0C0006F178C107F179C108F17AC109F1000E29
:101D1C000A6F000E0B6F000E0C6F000E0D6F9BEC1C
:101D2C002EF00101D8B09DEF0EF09FEF0EF024EFD6
:101D3C000FF0BEEF0EF07FC100F180C101F181C147
:101D4C0002F182C103F1000E046F000E056F200E2C
:101D5C00066F410E076F3AEC1AF000C17FF101C11A
:101D6C0080F102C181F103C182F101017B4B7C2B1B
:101D7C0077C119F178C11AF179C11BF17AC11CF143
:101D8C00000E046F000E056F200E066F410E076FDC
:101D9C007FC100F180C101F181C102F182C103F167
:101DAC003AEC1AF000C11DF101C11EF102C11FF184
:101DBC0003C120F1A4EC2BF00101D8B0E8EF0EF038
:101DCC00EAEF0EF0A1EF0EF00AEF0FF07FC10EF16B
:101DDC0080C10FF181C110F182C111F1000E126F9F
:101DEC00000E136F200E146F410E156F3FEC20F098
:101DFC000EC17FF10FC180F110C181F111C182F1CF
:101E0C0001017B07D8A07C0777C119F178C11AF1C1
:101E1C0079C11BF17AC11CF17FC11DF180C11EF18A
:101E2C0081C11FF182C120F1A4EC2BF00101D8A0DB
:101E3C0022EF0FF024EF0FF0ECEF0EF045C106F19E
:101E4C00076B23EC30F0010106516C6F6CC169F12A
:101E5C00670E6C19D8A435EF0FF037EF0FF05DEF6C
:101E6C000FF0C751C811D8A43EEF0FF040EF0FF0A0
:101E7C0044EF0FF0000EC86F010EC76FC8BF51EFD3
:101E8C000FF0C85106E1C705D8B04FEF0FF051EF76
:101E9C000FF057EF0FF0000E686F060E676F66EFCE
:101EAC000FF0C7C167F1C8C168F166EF0FF0C8BF8A
:101EBC0062EF0FF064EF0FF051EF0FF057EF0FF0F0
:101ECC00670E6C19D8A46DEF0FF06FEF0FF09EEF4B
:101EDC000FF07CAF7DEF0FF0FC0E7B5DFF0E7C599D
:101EEC00D8A07BEF0FF07DEF0FF09CEF0FF0FF0E03
:101EFC00466FFF0E476F67C148F168C149F1465103
:101F0C004827475149237B51485D4951800A4A6F04
:101F1C007C51800A4A59D8A096EF0FF098EF0FF039
:101F2C009CEF0FF0660E696F9EEF0FF0650E696FF8
:101F3C0067C15FF168C160F1670E6C19D8A4A9EF95
:101F4C000FF0ABEF0FF0BBEF0FF0660E6919D8A4D2
:101F5C00B2EF0FF0B4EF0FF0BDEF0FF07CBFBBEFA3
:101F6C000FF0B9EF0FF0BDEF0FF05F4B602B660E6B
:101F7C006919D8A4C4EF0FF0C6EF0FF0E6EF0FF01D
:101F8C007CBFCDEF0FF0CBEF0FF0D9EF0FF0000EC1
:101F9C007F6F000E806F800E816F3F0E826F000E80
:101FAC007C6F000E7B6F670E6C19D8B4E0EF0FF0EE
:101FBC00E2EF0FF0E6EF0FF07B515F277C516023CF
:101FCC00000E766F000E756F77C16DF178C16EF1F2
:101FDC0079C16FF17AC170F17FC14BF180C14CF1C5
:101FEC0081C14DF182C14EF178EF10F06DC10EF14F
:101FFC006EC10FF16FC110F170C111F17FC112F1FF
:10200C0080C113F181C114F182C115F13FEC20F0B4
:10201C000EC127F10FC128F110C129F111C12AF10C
:10202C0082EC25F027C171F128C172F129C173F13D
:10203C002AC174F171C106F172C107F173C108F1C3
:10204C0074C109F19CEC2AF006C163F107C164F17B
:10205C006DC137F16EC138F16FC139F170C13AF110
:10206C007FC104F180C105F181C106F182C107F184
:10207C0071C100F172C101F173C102F174C103F1BC
:10208C003AEC1AF000C13BF101C13CF102C13DF147
:10209C0003C13EF158EC31F037C16DF138C16EF12E
:1020AC0039C16FF13AC170F17FC10EF180C10FF1EE
:1020BC0081C110F182C111F1000E0101126F000EED
:1020CC00136F200E146F410E156F3FEC20F00EC1F4
:1020DC007FF10FC180F110C181F111C182F10101B9
:1020EC00754B762B5F51755D7651800A466F60514A
:1020FC00800A4659D8A085EF10F087EF10F0FCEF5E
:10210C000FF07FC100F180C101F181C102F182C1E8
:10211C0003F1000E046F000E056FA00E066F400E4B
:10212C00076F3AEC1AF000C171F101C172F102C1F2
:10213C0073F103C174F16DC119F16EC11AF16FC164
:10214C001BF170C11CF171C11DF172C11EF173C183
:10215C001FF174C120F1A4EC2BF00101D8B0B9EF40
:10216C0010F0BBEF10F0C5EF10F0000E716F000E09
:10217C00726F000E736F000E746FEEEF10F06DC186
:10218C0006F16EC107F16FC108F170C109F171C19F
:10219C000AF172C10BF173C10CF174C10DF19BEC1E
:1021AC002EF00101D8A0DDEF10F0DFEF10F0EEEF14
:1021BC0010F063B1E4EF10F0E6EF10F0EEEF10F07A
:1021CC00000E716F000E726F000E736F000E746F45
:1021DC0077C127F178C128F179C129F17AC12AF1A7
:1021EC0071C12BF172C12CF173C12DF174C12EF19F
:1021FC0041EC13F027C16DF128C16EF129C16FF1CB
:10220C002AC170F14BC17FF14CC180F14DC181F1FC
:10221C004EC182F1650E01016919D8B418EF11F0A5
:10222C001AEF11F020EF11F07BC161F17CC162F16A
:10223C0024EF11F0000E626F000E616F000E5E6FE6
:10224C00000E5D6F000E5C6F000E5B6F000E766F04
:10225C00000E756F22EF12F06DC10EF16EC10FF111
:10226C006FC110F170C111F17FC112F180C113F176
:10227C0081C114F182C115F13FEC20F00EC127F1A0
:10228C000FC128F110C129F111C12AF182EC25F0FE
:10229C0027C171F128C172F129C173F12AC174F1FE
:1022AC0071C106F172C107F173C108F174C109F172
:1022BC009CEC2AF006C163F107C164F10001B0B9CE
:1022CC006AEF11F06CEF11F08AEF11F0010163511C
:1022DC006411D8A474EF11F076EF11F08AEF11F0BD
:1022EC00670E6C19D8A47DEF11F07FEF11F08AEF17
:1022FC0011F062BF86EF11F084EF11F08AEF11F04C
:10230C005B4B5C2BD5EF11F001015D515E11D8A434
:10231C0092EF11F094EF11F0BEEF11F062BF9BEF52
:10232C0011F099EF11F0BEEF11F0000E7D25D96E72
:10233C00020E7E21DA6E2E0EDF6E7D4B7E2B6A072F
:10234C00D8A06B07000E5E6F010E5D6FBEEF11F033
:10235C00000E7D25D96E020E7E21DA6E300EDF6EF8
:10236C007D4B7E2B6A07D8A06B075B07D8A05C0758
:10237C005B515C11D8A4C5EF11F0C7EF11F0AEEFB3
:10238C0011F0000E7D25D96E020E7E21DA6E63519E
:10239C00300FDF6E7D4B7E2B6A07D8A06B076DC1AB
:1023AC0037F16EC138F16FC139F170C13AF17FC1AB
:1023BC0004F180C105F181C106F182C107F171C13F
:1023CC0000F172C101F173C102F174C103F13AEC75
:1023DC001AF000C13BF101C13CF102C13DF103C156
:1023EC003EF158EC31F037C16DF138C16EF139C1A5
:1023FC006FF13AC170F17FC10EF180C10FF181C153
:10240C0010F182C111F1000E0101126F000E136F59
:10241C00200E146F410E156F3FEC20F00EC17FF1B2
:10242C000FC180F110C181F111C182F1010161076D
:10243C00D8A06207754B762B5F51755D7651800A7B
:10244C00466F6051800A4659D8B02FEF12F031EF29
:10245C0012F03FEF12F07EBF3DEF12F07E5109E11A
:10246C004B0E7D5DD8A03DEF12F03FEF12F032EF36
:10247C0011F05D515E11D8A446EF12F048EF12F046
:10248C005BEF12F00001B0A94EEF12F050EF12F01A
:10249C005BEF12F0000E01017D25D96E020E7E213C
:1024AC00DA6E2E0EDF6E7D4B7E2B000E01017D252C
:1024BC00D96E020E7E21DA6E000EDF6E650E691982
:1024CC00D8A46BEF12F06DEF12F011EF0EF0000EBE
:1024DC00766F4F0E756F000E7525D96E020E762134
:1024EC00DA6E000EDF6E000E666F000E656F7CBF3D
:1024FC0084EF12F082EF12F08CEF12F0000E666F88
:10250C00010E656F7B6D7C1FD8B07C2B000E686F45
:10251C00020E676FBEEF12F07507D8A07607000E9B
:10252C007525D96E020E7621DA6E7BC100F17CC165
:10253C0001F1000E036F0A0E026F42EC2EF0010146
:10254C000051300FDF6E7BC100F17CC101F1000E38
:10255C00036F0A0E026FDFEC2DF000C17BF101C19D
:10256C007CF101016707D8A068076A07D8A06B0740
:10257C007B517C11D8A4C5EF12F0C7EF12F092EF8B
:10258C0012F068BFD4EF12F0685106E16705D8B0BD
:10259C00D2EF12F0D4EF12F092EF12F07507D8A030
:1025AC00760765516611D8A4DEEF12F0E0EF12F059
:1025BC00E6EF12F0000E566F2B0E556FEAEF12F08D
:1025CC00000E566F2D0E556F000E7525D96E020E2E
:1025DC007621DA6E55C1DFFF6A07D8A06B07750745
:1025EC00D8A07607BF0E466FFF0E476F4551486F58
:1025FC00496B465148274751492349510AE11A0E64
:10260C00485DD8A00CEF13F00FEF13F0010E10EF94
:10261C0013F0000E596F5A6B59515A11D8A419EF77
:10262C0013F01BEF13F021EF13F0000E586F650E33
:10263C00576F25EF13F0000E586F450E576F000EB5
:10264C007525D96E020E7621DA6E57C1DFFF6A0747
:10265C00D8A06B07000E7D25046F020E7E21056F3E
:10266C00000E7525066F020E7621076F54EC30F0C4
:10267C0011EF0EF0120001012A51800B336F2A5119
:10268C002A25356F29AF4DEF13F04FEF13F050EFB4
:10269C0013F035813551D8B456EF13F058EF13F0D1
:1026AC006DEF13F03529D8A45EEF13F060EF13F043
:1026BC0068EF13F0000E276F000E286F000E296FC5
:1026CC00000E2A6F298F000E2A6F75EF13F0000E83
:1026DC00276F000E286F000E296F000E2A6F2E51E7
:1026EC00800B346F33513419D8B47FEF13F081EF72
:1026FC0013F082EF13F0338D2E512E25346F2DAF46
:10270C008AEF13F08CEF13F08DEF13F0348134510A
:10271C00D8B493EF13F095EF13F0AAEF13F034291C
:10272C00D8A49BEF13F09DEF13F0A5EF13F0000E60
:10273C002B6F000E2C6F000E2D6F000E2E6F2D8F39
:10274C00000E2E6FB2EF13F0000E2B6F000E2C6FDD
:10275C00000E2D6F000E2E6F3551345DD8B0B9EFD1
:10276C0013F0BBEF13F0E2EF13F033ADC0EF13F047
:10277C00C2EF13F0C4EF13F0800E331B35C136F1EA
:10278C0034C135F136C134F127C136F12BC127F1F3
:10279C0036C12BF128C136F12CC128F136C12CF1F0
:1027AC0029C136F12DC129F136C12DF12AC136F1DD
:1027BC002EC12AF136C12EF1000E366F355134C1BF
:1027CC002FF1306B2F5F000E305B30BFF7EF13F043
:1027DC00305109E11A0E2F5DD8A0F7EF13F0F9EF85
:1027EC0013F030EF14F02751281129112A11D8A415
:1027FC0002EF14F005EF14F0010E06EF14F0000ECA
:10280C00366F000E276F000E286F000E296F000E1A
:10281C002A6F34C135F139EF14F036A118EF14F0EA
:10282C001AEF14F020EF14F0D89036310109366FFE
:10283C0022EF14F0D890363327A127EF14F029EFAC
:10284C0014F02AEF14F0368F2A352A332933283323
:10285C002733352B3451355DD8A037EF14F039EFD1
:10286C0014F013EF14F033BD3EEF14F040EF14F0FE
:10287C0080EF14F03551D8A446EF14F048EF14F063
:10288C0052EF14F0000E276F000E286F000E296F08
:10289C00000E2A6FA1EF15F02B5127272C5128235E
:1028AC002D5129232E512A232AA15FEF14F061EF19
:1028BC0014F00DEF15F036A166EF14F068EF14F07C
:1028CC006EEF14F0D89036310109366F70EF14F0BA
:1028DC00D890363327A175EF14F077EF14F078EF1A
:1028EC0014F0368F2A352A33293328332733352BE6
:1028FC000DEF15F02B51275D2C5128592D512959CD
:10290C002A51800A2F6F2E51800A2F59D8B091EF7F
:10291C0014F093EF14F0BEEF14F027512B5D2F6FD2
:10292C0028512C59306F29512D59316F2A512E595C
:10293C00326FFF0E2F25276FFF0E3021286FFF0EF1
:10294C003121296FFF0E32212A6F800E331B366D19
:10295C003651D8A4B4EF14F0B6EF14F0C6EF14F05F
:10296C00010E2727000E282329232A23C6EF14F053
:10297C002B51275F2C51285B2D51295B2E512A5B43
:10298C002751281129112A11D8A4CFEF14F0D1EF17
:10299C0014F006EF15F03651D8A4D7EF14F0D9EF98
:1029AC0014F006EF15F0000E276F000E286F000EC6
:1029BC00296F000E2A6FA1EF15F0D8902737283712
:1029CC0029372A3736AFEDEF14F0EFEF14F0F0EFB4
:1029DC0014F0278136A1F5EF14F0F7EF14F0FBEFAC
:1029EC0014F0D8803637FDEF14F0D89036373551C7
:1029FC00D8B403EF15F005EF15F006EF15F0350719
:102A0C0029AF0BEF15F00DEF15F0E3EF14F0000EFE
:102A1C00346F36AF14EF15F016EF15F02EEF15F0EE
:102A2C0036C12FF17F0E2F17D8B41FEF15F021EF01
:102A3C0015F025EF15F0010E346F2EEF15F027A1D0
:102A4C002AEF15F02CEF15F02EEF15F021EF15F005
:102A5C003451D8B434EF15F036EF15F061EF15F0B2
:102A6C00010E2727000E282329232A232AA141EF10
:102A7C0015F043EF15F061EF15F027C12FF128C1C8
:102A8C0030F129C131F12AC132F1323532333133CF
:102A9C0030332F332FC127F130C128F131C129F147
:102AAC0032C12AF13529D8B45EEF15F060EF15F07C
:102ABC0061EF15F0352B3529D8B467EF15F069EFB8
:102ACC0015F071EF15F03551D8A46FEF15F071EFCB
:102ADC0015F083EF15F0000E276F000E286F000E17
:102AEC00296F000E2A6F3551D8A47FEF15F081EFB6
:102AFC0015F083EF15F0000E336F35A188EF15F04C
:102B0C008AEF15F08DEF15F0298F8EEF15F0299FB8
:102B1C00D89035312A6F33AF96EF15F098EF15F04A
:102B2C0099EF15F02A8F27C127F128C128F129C167
:102B3C0029F12AC12AF1120000016351800B686F40
:102B4C00635163256A6F62AFAEEF15F0B0EF15F00D
:102B5C00B1EF15F06A816A51D8B4B7EF15F0B9EF3F
:102B6C0015F0CEEF15F06A29D8A4BFEF15F0C1EF20
:102B7C0015F0C9EF15F0000E606F000E616F000EBE
:102B8C00626F000E636F628F000E636FD6EF15F0ED
:102B9C00000E606F000E616F000E626F000E636FAF
:102BAC006751800B696F68516919D8B4E0EF15F063
:102BBC00E2EF15F0E3EF15F0688D67516725696F4B
:102BCC0066AFEBEF15F0EDEF15F0EEEF15F0698158
:102BDC006951D8B4F4EF15F0F6EF15F00BEF16F0D1
:102BEC006929D8A4FCEF15F0FEEF15F006EF16F0EE
:102BFC00000E646F000E656F000E666F000E676F3F
:102C0C00668F000E676F13EF16F0000E646F000EE8
:102C1C00656F000E666F000E676F6A51695DD8B004
:102C2C001AEF16F01CEF16F043EF16F068AD21EF1B
:102C3C0016F023EF16F025EF16F0800E681B6AC015
:102C4C006BF069C06AF06BC069F060C06BF064C077
:102C5C0060F06BC064F061C06BF065C061F06BC07C
:102C6C0065F062C06BF066C062F06BC066F063C06A
:102C7C006BF067C063F06BC067F0000E6B6F6A514E
:102C8C0069C05BF05C6A5B5E000E5C5A5CBE58EF20
:102C9C0016F05C5009E11A0E5B5CD8A058EF16F0E8
:102CAC005AEF16F091EF16F0605161116211631139
:102CBC00D8A463EF16F066EF16F0010E67EF16F06E
:102CCC00000E6B6F000E606F000E616F000E626F76
:102CDC00000E636F69C06AF09AEF16F06BA179EF82
:102CEC0016F07BEF16F081EF16F0D8906B310109DE
:102CFC006B6F83EF16F0D8906B3360A188EF16F0F2
:102D0C008AEF16F08BEF16F06B8F633563336233FB
:102D1C00613360336A2B69516A5DD8A098EF16F065
:102D2C009AEF16F074EF16F068BD9FEF16F0A1EF56
:102D3C0016F0E1EF16F06A51D8A4A7EF16F0A9EF40
:102D4C0016F0B3EF16F0000E606F000E616F000E00
:102D5C00626F000E636F02EF18F0645160276551CB
:102D6C006123665162236751632363A1C0EF16F0A0
:102D7C00C2EF16F06EEF17F06BA1C7EF16F0C9EFAC
:102D8C0016F0CFEF16F0D8906B3101096B6FD1EFC5
:102D9C0016F0D8906B3360A1D6EF16F0D8EF16F082
:102DAC00D9EF16F06B8F6335633362336133603365
:102DBC006A2B6EEF17F06451605D65516159665175
:102DCC0062596351800A5B6E6751800A5B58D8B0B8
:102DDC00F2EF16F0F4EF16F01FEF17F06051645D90
:102DEC005B6E615165595C6E625166595D6E6351E3
:102DFC0067595E6EFF0E5B24606FFF0E5C20616F87
:102E0C00FF0E5D20626FFF0E5E20636F800E681BED
:102E1C006B6D6B51D8A415EF17F017EF17F027EF68
:102E2C0017F0010E6027000E61236223632327EF46
:102E3C0017F06451605F6551615B6651625B67516D
:102E4C00635B6051611162116311D8A430EF17F00C
:102E5C0032EF17F067EF17F06B51D8A438EF17F07B
:102E6C003AEF17F067EF17F0000E606F000E616F0E
:102E7C00000E626F000E636F02EF18F0D89060378F
:102E8C006137623763376BAF4EEF17F050EF17F0C7
:102E9C0051EF17F060816BA156EF17F058EF17F058
:102EAC005CEF17F0D8806B375EEF17F0D8906B376C
:102EBC006A51D8B464EF17F066EF17F067EF17F0AC
:102ECC006A0762AF6CEF17F06EEF17F044EF17F074
:102EDC00000E696F6BAF75EF17F077EF17F08FEF90
:102EEC0017F06BC05BF07F0E5B16D8B480EF17F059
:102EFC0082EF17F086EF17F0010E696F8FEF17F066
:102F0C0060A18BEF17F08DEF17F08FEF17F082EFBA
:102F1C0017F06951D8B495EF17F097EF17F0C2EF8F
:102F2C0017F0010E6027000E61236223632363A157
:102F3C00A2EF17F0A4EF17F0C2EF17F060C05BF030
:102F4C0061C05CF062C05DF063C05EF05E345E3206
:102F5C005D325C325B325BC060F05CC061F05DC0C6
:102F6C0062F05EC063F06A29D8B4BFEF17F0C1EF0E
:102F7C0017F0C2EF17F06A2B6A29D8B4C8EF17F014
:102F8C00CAEF17F0D2EF17F06A51D8A4D0EF17F0B0
:102F9C00D2EF17F0E4EF17F0000E606F000E616FC8
:102FAC00000E626F000E636F6A51D8A4E0EF17F049
:102FBC00E2EF17F0E4EF17F0000E686F6AA1E9EF8B
:102FCC0017F0EBEF17F0EEEF17F0628FEFEF17F053
:102FDC00629FD8906A31636F68AFF7EF17F0F9EF23
:102FEC0017F0FAEF17F0638F60C060F061C061F00A
:102FFC0062C062F063C063F0120085C1D9FF86C164
:10300C00DAFFDECFF6FFDDCFF7FF0800F550250A1B
:10301C00D8A413EF18F015EF18F01DEF1AF085C1B6
:10302C00D9FF86C1DAFFDE2A000EDD22000E010177
:10303C00C66F000EC56FC5C1B0F0C6C1B1F0C7698F
:10304C00C86985C1D9FF86C1DAFFDECFF6FFDDCFB7
:10305C00F7FF0800F5502E0AD8A437EF18F039EF17
:10306C0018F0B7EF18F0000EC86F000EC76F85C1CF
:10307C00D9FF86C1DAFFDE2A000EDD2285C1D9FF19
:10308C0086C1DAFFDECFF6FFDDCFF7FF0800F55083
:10309C002A0AD8A454EF18F056EF18F073EF18F072
:1030AC0085C1D9FF86C1DAFFDE2A000EDD2287C179
:1030BC00D9FF88C1DAFFDFCF89F1020EDE26DFCF20
:1030CC008AF1000EDD2289C1D9FF8AC1DAFFDECF79
:1030DC00C7F1DDCFC8F1B7EF18F085C1D9FF86C1B4
:1030EC00DAFFDECF07F1DDCF08F14CEC29F007C198
:1030FC00C7F108C1C8F18AEF18F085C1D9FF86C1A4
:10310C00DAFFDE2A000EDD22D00E0101896FFF0EE0
:10311C008A6F85C1D9FF86C1DAFFDECFF6FFDDCF1E
:10312C00F7FF0800F5508B6F8C6B89518B278A51F8
:10313C008C238C510AE10A0E8B5DD8A0A8EF18F0F5
:10314C00ABEF18F0010EACEF18F0000E8D6F8E6B1C
:10315C008D518E11D8A4B5EF18F0B7EF18F083EF9E
:10316C0018F085C1D9FF86C1DAFFDECFF6FFDDCFBF
:10317C00F7FF0800F550066F076B23EC30F00101E8
:10318C000651956F9551D8B4CEEF18F0D0EF18F0DA
:10319C000AEF19F085C1D9FF86C1DAFFDECF89F1BC
:1031AC00DDCF8AF1010E8927000E8A2389C1F6FF33
:1031BC008AC1F7FF0800F550066F076B23EC30F05F
:1031CC0001010651966F9651D8B4EFEF18F0F1EF5C
:1031DC0018F00AEF19F085C1D9FF86C1DAFFDECFEE
:1031EC0089F1DDCF8AF1020E8927000E8A2389C16D
:1031FC00F6FF8AC1F7FF0800F550066F076B23EC4A
:10320C0030F001010651976F660E9519D8A411EF95
:10321C0019F013EF19F053EF19F085C1D9FF86C1DE
:10322C00DAFFDECFF6FFDDCFF7FF0800F5CF98F120
:10323C0085C1D9FF86C1DAFFDE2A000EDD2287C1E7
:10324C00D9FF88C1DAFFDFCF89F1040EDE26DFCF8C
:10325C008AF1000EDD2289C1D9FF8AC1DAFFDECFE7
:10326C0091F1DECF92F1DECF93F1DECF94F183C1F9
:10327C003FF184C140F191C141F192C142F193C13E
:10328C0043F194C144F198C145F15CEC0DF03FC1A0
:10329C0083F140C184F139EF1AF0950E006F010EE5
:1032AC00016F770E026F080E036F000E056F020E92
:1032BC00046FA7EC2CF0010100510111D8A469EFA7
:1032CC0019F06BEF19F0E6EF19F085C1D9FF86C143
:1032DC00DAFFDECF89F1DDCF8AF1010E8927000EEE
:1032EC008A2389C1F6FF8AC1F7FF0800F5CF98F150
:1032FC00BF0E896FFF0E8A6F85C1D9FF86C1DAFFB9
:10330C00DECFF6FFDDCFF7FF0800F5508B6F8C6B2F
:10331C0089518B278A518C238C510AE11A0E8B5DB3
:10332C00D8A09BEF19F09EEF19F0010E9FEF19F04A
:10333C00000E8F6F906B8F519011D8B4A8EF19F0CD
:10334C00AAEF19F0C4EF19F087C1D9FF88C1DAFFD1
:10335C00DFCF89F1040EDE26DFCF8AF1000EDD22ED
:10336C0089C1D9FF8AC1DAFFDECF91F1DECF92F1AC
:10337C00DECF93F1DECF94F1DCEF19F087C1D9FFEA
:10338C0088C1DAFFDFCF89F1040EDE26DFCF8AF1A8
:10339C00000EDD2289C1D9FF8AC1DAFFDECF91F19F
:1033AC00DECF92F1DECF93F1DECF94F1020E85C128
:1033BC00D9FF86C1DAFFDE26000EDD223DEF19F0C3
:1033CC0085C1D9FF86C1DAFFDECFF6FFDDCFF7FF6F
:1033DC000800F550250AD8A4F6EF19F0F8EF19F00B
:1033EC0010EF1AF085C1D9FF86C1DAFFDE2A000E74
:1033FC00DD22000E016F250E006F83C102F184C126
:10340C0003F179EC2DF0000E0101846F010E836F36
:10341C0039EF1AF085C1D9FF86C1DAFFDE2A000E1A
:10342C00DD22000E846F000E836F39EF1AF085C118
:10343C00D9FF86C1DAFFDECFF6FFDDCFF7FF08003C
:10344C00F5500101006F016B83C102F184C103F1DE
:10345C0079EC2DF085C1D9FF86C1DAFFDE2A000E8A
:10346C00DD2209EF1AF0120001010351800B0C6FE1
:10347C0003510325126F02AF46EF1AF048EF1AF012
:10348C0049EF1AF012811251D8B44FEF1AF051EFE4
:10349C001AF064EF1AF01229D8A457EF1AF059EF6A
:1034AC001AF061EF1AF0000E006F000E016F000EA3
:1034BC00026F000E036F028F6CEF1AF0000E006F9C
:1034CC00000E016F000E026F000E036F0751800B90
:1034DC000C1B075107250D6F06AF77EF1AF079EF2C
:1034EC001AF07AEF1AF00D810D51D8B480EF1AF062
:1034FC0082EF1AF095EF1AF00D29D8A488EF1AF084
:10350C008AEF1AF092EF1AF0000E046F000E056F9E
:10351C00000E066F000E076F068F9DEF1AF0000E5F
:10352C00046F000E056F000E066F000E076F0D5135
:10353C00D8B4A3EF1AF0A5EF1AF0ADEF1AF01251B0
:10354C00D8A4ABEF1AF0ADEF1AF0B7EF1AF0000EEB
:10355C00006F000E016F000E026F000E036F4FEF35
:10356C001CF006510003F3CF17F1F4CF18F11751EB
:10357C000E6F0F6B106B116B1851136F146B156B67
:10358C00166B05510103F3CF17F1F4CF18F1175156
:10359C000E27000E0F231023112318511327000E92
:1035AC0014231523162304510203F3CF17F1F4CF80
:1035BC0018F117510E27000E0F2310231123185149
:1035CC001327000E14231523162310C111F10FC15C
:1035DC0010F10EC10FF10E6B04510103F3CF17F173
:1035EC00F4CF18F117510E2718510F23000E10238A
:1035FC00000E112305510003F3CF17F1F4CF18F18E
:10360C0017510E2718510F23000E1023000E1123F3
:10361C0010C111F10FC110F10EC10FF10E6B04515D
:10362C000003F3CF17F1F4CF18F117510E271851EF
:10363C000F23000E1023000E112306510103F3CFAC
:10364C0017F1F4CF18F11751132718511423000E4A
:10365C001523000E162305510203F3CF17F1F4CFF7
:10366C0018F11751132718511423000E1523000EAF
:10367C00162306510203F3CF17F1F4CF18F11751AB
:10368C00086F1851096F0A6B0B6B0AC10BF109C15A
:10369C000AF108C109F1086B0851132709511423C9
:1036AC000A5115230B5116230EC108F10FC109F154
:1036BC0010C10AF111C10BF1190E6AEF1BF0D89071
:1036CC000B330A3309330833E82E65EF1BF008512E
:1036DC001327095114230A5115230B51162310C11A
:1036EC0011F10FC110F10EC10FF10E6B0D5112C182
:1036FC0008F1096B0827000E0923820E0825176FA5
:10370C00FF0E0921186FA0EF1BF0D8901337143758
:10371C001537163711AF95EF1BF097EF1BF098EF9D
:10372C001BF01381D8900E370F371037113717074E
:10373C00D8A0180715AFA5EF1BF0A7EF1BF08BEF68
:10374C001BF0000E0D6F11AFAEEF1BF0B0EF1BF0C6
:10375C00D4EF1BF0FF0E0E15086FFF0E0F15096F3F
:10376C00FF0E10150A6F7F0E11150B6F0851091102
:10377C000A110B11D8B4C5EF1BF0C7EF1BF0CBEF40
:10378C001BF0010E0D6FD4EF1BF013A1D0EF1BF04B
:10379C00D2EF1BF0D4EF1BF0C7EF1BF00D51D8B4D8
:1037AC00DAEF1BF0DCEF1BF000EF1CF0010E13271F
:1037BC00000E14231523162316A1E7EF1BF0E9EFD7
:1037CC001BF000EF1CF013C108F114C109F115C175
:1037DC000AF116C10BF10B350B330A3309330833DD
:1037EC0008C113F109C114F10AC115F10BC116F18D
:1037FC00174B182B18BF0BEF1CF0185108E11729A9
:10380C00D8A00BEF1CF00DEF1CF017EF1CF0000E06
:10381C00136F000E146F800E156F7F0E166F45EF31
:10382C001CF018BF24EF1CF0185106E11705D8B096
:10383C0022EF1CF024EF1CF030EF1CF0000E136F85
:10384C00000E146F000E156F000E166F000E0C6F2D
:10385C0045EF1CF017C112F1FF0E1317FF0E1417D2
:10386C007F0E1517000E161712A13FEF1CF041EF3B
:10387C001CF042EF1CF0158FD8901231166F0C51C2
:10388C00161313C100F114C101F115C102F116C1D7
:10389C0003F112002C50800B356E2C502C243B6EF7
:1038AC002BAE5BEF1CF05DEF1CF05EEF1CF03B8071
:1038BC003B50D8B464EF1CF066EF1CF079EF1CF0B1
:1038CC003B28D8A46CEF1CF06EEF1CF076EF1CF0CC
:1038DC00000E296E000E2A6E000E2B6E000E2C6E42
:1038EC002B8E81EF1CF0000E296E000E2A6E000E3E
:1038FC002B6E000E2C6E3050800B351A305030244D
:10390C003A6E2FAE8CEF1CF08EEF1CF08FEF1CF08C
:10391C003A803A50D8B495EF1CF097EF1CF0AAEF10
:10392C001CF03A28D8A49DEF1CF09FEF1CF0A7EFD9
:10393C001CF0000E2D6E000E2E6E000E2F6E000E63
:10394C00306E2F8EB2EF1CF0000E2D6E000E2E6E10
:10395C00000E2F6E000E306E3A50D8B4B8EF1CF03B
:10396C00BAEF1CF0C2EF1CF03B50D8A4C0EF1CF017
:10397C00C2EF1CF0CCEF1CF0000E296E000E2A6E6C
:10398C00000E2B6E000E2C6E64EF1EF02F502902D1
:10399C00F3CF40F0F4CF41F04050366E376A386ABE
:1039AC00396A41503C6E3D6A3E6A3F6A2E502A028B
:1039BC00F3CF40F0F4CF41F040503626000E3722C2
:1039CC003822392241503C26000E3D223E223F2215
:1039DC002D502B02F3CF40F0F4CF41F0405036265F
:1039EC00000E37223822392241503C26000E3D224F
:1039FC003E223F2238C039F037C038F036C037F09D
:103A0C00366A2D502A02F3CF40F0F4CF41F04050EB
:103A1C00362641503722000E3822000E39222E5005
:103A2C002902F3CF40F0F4CF41F0405036264150FC
:103A3C003722000E3822000E392238C039F037C038
:103A4C0038F036C037F0366A2D502902F3CF40F0EB
:103A5C00F4CF41F04050362641503722000E382228
:103A6C00000E39222F502A02F3CF40F0F4CF41F050
:103A7C0040503C2641503D22000E3E22000E3F227B
:103A8C002E502B02F3CF40F0F4CF41F040503C26A7
:103A9C0041503D22000E3E22000E3F222F502B02A1
:103AAC00F3CF40F0F4CF41F04050316E4150326EC4
:103ABC00336A346A33C034F032C033F031C032F080
:103ACC00316A31503C2632503D2233503E22345024
:103ADC003F2236C031F037C032F038C033F039C035
:103AEC0034F0190E7FEF1DF0D8903432333232326D
:103AFC003132E82E7AEF1DF031503C2632503D2207
:103B0C0033503E2234503F2238C039F037C038F0A1
:103B1C0036C037F0366A3A503BC031F0326A312643
:103B2C00000E3222820E3124406EFF0E3220416E86
:103B3C00B5EF1DF0D8903C363D363E363F3639AEAB
:103B4C00AAEF1DF0ACEF1DF0ADEF1DF03C80D8904E
:103B5C0036363736383639364006D8A041063EAEB2
:103B6C00BAEF1DF0BCEF1DF0A0EF1DF0000E3A6E89
:103B7C0039AEC3EF1DF0C5EF1DF0E9EF1DF0FF0EE0
:103B8C003614316EFF0E3714326EFF0E3814336E4E
:103B9C007F0E3914346E3150321033103410D8B4C7
:103BAC00DAEF1DF0DCEF1DF0E0EF1DF0010E3A6EC8
:103BBC00E9EF1DF03CA0E5EF1DF0E7EF1DF0E9EF9C
:103BCC001DF0DCEF1DF03A50D8B4EFEF1DF0F1EF23
:103BDC001DF015EF1EF0010E3C26000E3D223E227C
:103BEC003F223FA0FCEF1DF0FEEF1DF015EF1EF085
:103BFC003CC031F03DC032F03EC033F03FC034F039
:103C0C003434343233323232313231C03CF032C09F
:103C1C003DF033C03EF034C03FF0404A412A41BE33
:103C2C0020EF1EF0415008E14028D8A020EF1EF0F4
:103C3C0022EF1EF02CEF1EF0000E3C6E000E3D6EBF
:103C4C00800E3E6E7F0E3F6E5AEF1EF041BE39EF76
:103C5C001EF0415006E14004D8B037EF1EF039EFAA
:103C6C001EF045EF1EF0000E3C6E000E3D6E000E79
:103C7C003E6E000E3F6E000E356E5AEF1EF040C0C9
:103C8C003BF0FF0E3C16FF0E3D167F0E3E16000E4F
:103C9C003F163BA054EF1EF056EF1EF057EF1EF0F0
:103CAC003E8ED8903B303F6E35503F123CC029F0D1
:103CBC003DC02AF03EC02BF03FC02CF01200ACC02F
:103CCC002DF0ADC02EF0AEC02FF0AFC030F07EC0E6
:103CDC001BF07FC01CF0000E1CBEFF0E1D6E1E6E76
:103CEC00010E72EC28F01BC029F01CC02AF01DC07C
:103CFC002BF01EC02CF050EC1CF029C086F02AC012
:103D0C0087F02BC088F02CC089F0BDC02DF0BEC050
:103D1C002EF0BFC02FF0C0C030F086C029F087C095
:103D2C002AF088C02BF089C02CF050EC1CF029C074
:103D3C0060F02AC061F02BC062F02CC063F0A4C00C
:103D4C0064F0A5C065F0A6C066F0A7C067F0A2EC51
:103D5C0015F060C0A4F061C0A5F062C0A6F063C00D
:103D6C00A7F0A8C02DF0A9C02EF0AAC02FF0ABC0B0
:103D7C0030F00001B2517E5D806FB3517F59816F7D
:103D8C0080C01BF081C01CF0000E1CBEFF0E1D6E0F
:103D9C001E6E010E72EC28F01BC029F01CC02AF01C
:103DAC001DC02BF01EC02CF050EC1CF029C042F0B2
:103DBC002AC043F02BC044F02CC045F0BDC046F0E7
:103DCC00BEC047F0BFC048F0C0C049F00DEC22F0B7
:103DDC0042C082F043C083F044C084F045C085F0FB
:103DEC007EC0B2F07FC0B3F0A4C064F0A5C065F093
:103DFC00A6C066F0A7C067F0C5C02DF0C6C02EF0F7
:103E0C00C7C02FF0C8C030F07EC01BF07FC01CF0C4
:103E1C00000E1CBEFF0E1D6E1E6E010E72EC28F005
:103E2C001BC029F01CC02AF01DC02BF01EC02CF0AA
:103E3C0050EC1CF029C060F02AC061F02BC062F07D
:103E4C002CC063F0A2EC15F060C08AF061C08BF05E
:103E5C0062C08CF063C08DF08AC060F08BC061F0E2
:103E6C008CC062F08DC063F082C064F083C065F0DA
:103E7C0084C066F085C067F0A2EC15F060C08FF0CE
:103E8C0061C090F062C091F063C092F0000192BFEB
:103E9C0054EF1FF052EF1FF05AEF1FF08280829206
:103EAC00690E8E6F5EEF1FF082908282640E8E6FB1
:103EBC00000E466E000E476EB40E486E430E496EF1
:103ECC008FC001F090C002F091C003F092C004F0DA
:103EDC002EEC32F001C02DF002C02EF003C02FF0FA
:103EEC0004C030F0C80E0001806F000E816FD151FC
:103EFC00805FD251815B80C01BF081C01CF0000E32
:103F0C001CBEFF0E1D6E1E6E010E72EC28F01BC047
:103F1C0029F01CC02AF01DC02BF01EC02CF050EC58
:103F2C001CF029C042F02AC043F02BC044F02CC036
:103F3C0045F00DEC22F042C060F043C061F044C08B
:103F4C0062F045C063F0D1C01BF0D2C01CF0000E73
:103F5C001CBEFF0E1D6E1E6E010E72EC28F01BC0F7
:103F6C0064F01CC065F01DC066F01EC067F0A2ECCA
:103F7C0015F060C08FF061C090F062C091F063C02A
:103F8C0092F000017E517F11D8B4CFEF1FF0D1EF2A
:103F9C001FF030EF20F0B851D8B4D7EF1FF0D9EFA5
:103FAC001FF001EF20F08FC060F090C061F091C065
:103FBC0062F092C063F0CFC01BF0D0C01CF0000EBA
:103FCC001CBEFF0E1D6E1E6E010E72EC28F01BC087
:103FDC0064F01CC065F01DC066F01EC067F0A2EC5A
:103FEC0015F060C08FF061C090F062C091F063C0BA
:103FFC0092F030EF20F0D3518E19D8B408EF20F0A6
:10400C000AEF20F030EF20F08FC060F090C061F02C
:10401C0091C062F092C063F0CDC01BF0CEC01CF01A
:10402C00000E1CBEFF0E1D6E1E6E010E72EC28F0F3
:10403C001BC064F01CC065F01DC066F01EC067F0AC
:10404C00A2EC15F060C08FF061C090F062C091F0EE
:10405C0063C092F08FC074F090C075F091C076F090
:10406C0092C077F020EC2BF074C07EF075C07FF01E
:10407C00120001011151800B1E6F11511125256F7A
:10408C0010AF4BEF20F04DEF20F04EEF20F02581DC
:10409C002551D8B454EF20F056EF20F06BEF20F000
:1040AC002529D8A45CEF20F05EEF20F066EF20F01D
:1040BC00000E0E6F000E0F6F000E106F000E116FC2
:1040CC00108F000E116F73EF20F0000E0E6F000EAC
:1040DC000F6F000E106F000E116F1551800B1E1B11
:1040EC0015511525266F14AF7EEF20F080EF20F0D0
:1040FC0081EF20F026812651D8B487EF20F089EF8C
:10410C0020F09EEF20F02629D8A48FEF20F091EF1D
:10411C0020F099EF20F0000E126F000E136F000EBE
:10412C00146F000E156F148F000E156FA6EF20F094
:10413C00000E126F000E136F000E146F000E156F31
:10414C001251131114111511D8A4AFEF20F0B1EFC7
:10415C0020F0C9EF20F0000E0E6F000E0F6F000E56
:10416C00106F000E116F800E10137F0E11131E5165
:10417C0011130EC10EF10FC10FF110C110F111C1CD
:10418C0011F10CEF22F02551D8A4CFEF20F0D1EF94
:10419C0020F0DBEF20F0000E0E6F000E0F6F000E04
:1041AC00106F000E116F0CEF22F0265125C116F185
:1041BC00176B165F000E175B7F0E16251F6F000E18
:1041CC001721206F0EC11AF10FC11BF110C11CF188
:1041DC0011C11DF1000E0E6F000E0F6F000E106F4F
:1041EC00000E116F000E216F000E226F000E236F58
:1041FC00000E246F000E266F3CEF21F02651D8B430
:10420C000AEF21F00CEF21F023EF21F0D8901A37B0
:10421C001B371C371D37D8900E370F371037113717
:10422C0024AF1BEF21F01DEF21F01EEF21F00E81CA
:10423C00D890213722372337243712511A5D135166
:10424C001B5914511C5915511D59D8A030EF21F090
:10425C0032EF21F03BEF21F0248D12511A5F1351F4
:10426C001B5B14511C5B15511D5B262B190E26650F
:10427C0042EF21F044EF21F004EF21F01A511B1111
:10428C001C111D11D8B44DEF21F04FEF21F067EF49
:10429C0021F0218167EF21F0D8900E370F371037BE
:1042AC00113724AF5CEF21F05EEF21F05FEF21F0CE
:1042BC000E81D89021372237233724371F07D8A0F7
:1042CC00200710AF6CEF21F06EEF21F052EF21F0D0
:1042DC00000E266F24AF75EF21F077EF21F09BEFE6
:1042EC0021F0FF0E2115166FFF0E2215176FFF0E12
:1042FC002315186F7F0E2415196F165117111811ED
:10430C001911D8B48CEF21F08EEF21F092EF21F03F
:10431C00010E266F9BEF21F00EA197EF21F099EF84
:10432C0021F09BEF21F08EEF21F02651D8B4A1EFB4
:10433C0021F0A3EF21F0C7EF21F0010E0E27000EA4
:10434C000F231023112311A1AEEF21F0B0EF21F0B8
:10435C00C7EF21F00EC116F10FC117F110C118F102
:10436C0011C119F11935193318331733163316C116
:10437C000EF117C10FF118C110F119C111F11F4B3A
:10438C00202B20BFD2EF21F0205108E11F29D8A00B
:10439C00D2EF21F0D4EF21F0DFEF21F0000E206FEF
:1043AC001F69000E0E6F000E0F6F000E106F000EC7
:1043BC00116F20BFECEF21F0205106E11F05D8B0A2
:1043CC00EAEF21F0ECEF21F0FAEF21F0000E206F74
:1043DC00000E1F6F000E0E6F000E0F6F000E106F91
:1043EC00000E116F000E1E6F1FC125F125A101EFEC
:1043FC0022F003EF22F006EF22F0108F07EF22F0ED
:10440C00109FD8902531116FBDEF20F01200455050
:10441C00800B526E45504524596E44AE18EF22F075
:10442C001AEF22F01BEF22F059805950D8B421EF2B
:10443C0022F023EF22F038EF22F05928D8A429EFEC
:10444C0022F02BEF22F033EF22F0000E426E000E22
:10445C00436E000E446E000E456E448E000E456E8B
:10446C0040EF22F0000E426E000E436E000E446EC2
:10447C00000E456E4950800B521A495049245A6E11
:10448C0048AE4BEF22F04DEF22F04EEF22F05A8067
:10449C005A50D8B454EF22F056EF22F06BEF22F0C2
:1044AC005A28D8A45CEF22F05EEF22F066EF22F0DF
:1044BC00000E466E000E476E000E486E000E496EE2
:1044CC00488E000E496E73EF22F0000E466E000E01
:1044DC00476E000E486E000E496E4650471048104D
:1044EC004910D8A47CEF22F07EEF22F096EF22F058
:1044FC00000E426E000E436E000E446E000E456EB2
:10450C00800E44127F0E45125250451242C042F0AA
:10451C0043C043F044C044F045C045F0D9EF23F00C
:10452C005950D8A49CEF22F09EEF22F0A8EF22F075
:10453C00000E426E000E436E000E446E000E456E71
:10454C00D9EF23F05A5059C04AF04B6A4A5E000E1C
:10455C004B5A7F0E4A24536E000E4B20546E42C0B1
:10456C004EF043C04FF044C050F045C051F0000E27
:10457C00426E000E436E000E446E000E456E000E31
:10458C00556E000E566E000E576E000E586E000ED5
:10459C005A6E09EF23F05A50D8B4D7EF22F0D9EF66
:1045AC0022F0F0EF22F0D8904E364F36503651367E
:1045BC00D890423643364436453658AEE8EF22F0B2
:1045CC00EAEF22F0EBEF22F04280D89055365636C7
:1045DC005736583646504E5C47504F5848505058F6
:1045EC0049505158D8A0FDEF22F0FFEF22F008EF10
:1045FC0023F0588C46504E5E47504F5A4850505AF4
:10460C004950515A5A2A190E5A640FEF23F011EFE0
:10461C0023F0D1EF22F04E504F1050105110D8B45F
:10462C001AEF23F01CEF23F034EF23F0558034EF16
:10463C0023F0D890423643364436453658AE29EFEF
:10464C0023F02BEF23F02CEF23F04280D89055363B
:10465C005636573658365306D8A0540644AE39EF62
:10466C0023F03BEF23F01FEF23F0000E5A6E58AEF1
:10467C0042EF23F044EF23F068EF23F0FF0E5514C4
:10468C004A6EFF0E56144B6EFF0E57144C6E7F0E77
:10469C0058144D6E4A504B104C104D10D8B459EF65
:1046AC0023F05BEF23F05FEF23F0010E5A6E68EFFF
:1046BC0023F042A064EF23F066EF23F068EF23F0C1
:1046CC005BEF23F05A50D8B46EEF23F070EF23F069
:1046DC0094EF23F0010E4226000E43224422452281
:1046EC0045A07BEF23F07DEF23F094EF23F042C045
:1046FC004AF043C04BF044C04CF045C04DF04D3433
:10470C004D324C324B324A324AC042F04BC043F02D
:10471C004CC044F04DC045F0534A542A54BE9FEF50
:10472C0023F0545008E15328D8A09FEF23F0A1EFB9
:10473C0023F0ACEF23F0000E546E5368000E426E63
:10474C00000E436E000E446E000E456E54BEB9EF63
:10475C0023F0545006E15304D8B0B7EF23F0B9EF6F
:10476C0023F0C7EF23F0000E546E000E536E000EB4
:10477C00426E000E436E000E446E000E456E000E2F
:10478C00526E53C059F059A0CEEF23F0D0EF23F066
:10479C00D3EF23F0448ED4EF23F0449ED8905930BD
:1047AC00456E8AEF22F0120046EF25F012C100F19F
:1047BC0013C101F1000E036F180E026F8BEC32F077
:1047CC00520E01010025D96E020E0121DA6EDECFE8
:1047DC00C9F0DECFCAF0DECFCBF0DECFCCF081EF6C
:1047EC0025F012C100F113C101F1000E036F180E78
:1047FC00026F8BEC32F0520E01010025D96E020EC5
:10480C000121DA6EDECFC5F0DECFC6F0DECFC7F009
:10481C00DECFC8F081EF25F012C100F113C101F118
:10482C00000E036F180E026F8BEC32F0520E01016A
:10483C000025D96E020E0121DA6EDECFACF0DECF90
:10484C00ADF0DECFAEF0DECFAFF081EF25F012C1D0
:10485C0000F113C101F1000E036F180E026F8BEC07
:10486C0032F0520E01010025D96E020E0121DA6ED2
:10487C00DECFA8F0DECFA9F0DECFAAF0DECFABF012
:10488C0081EF25F012C100F113C101F1000E036F8D
:10489C00180E026F8BEC32F0520E01010025D96E0E
:1048AC00020E0121DA6EDECF06F1DECF07F1DECF8C
:1048BC0008F1DECF09F19CEC2AF001010651BE6E25
:1048CC0081EF25F012C100F113C101F1000E036F4D
:1048DC00180E026F8BEC32F0520E01010025D96ECE
:1048EC00020E0121DA6EDECF06F1DECF07F1DECF4C
:1048FC0008F1DECF09F1000E0A6F000E0B6F800E6F
:10490C000C6F3F0E0D6F9BEC2EF00101D8A091EFB8
:10491C0024F093EF24F097EF24F08280829281EFC1
:10492C0025F08290828281EF25F012C100F113C133
:10493C0001F1000E036F180E026F8BEC32F0520E69
:10494C0001010025D96E020E0121DA6EDECF06F1CF
:10495C00DECF07F1DECF08F1DECF09F19CEC2AF0B7
:10496C0001010651071108110911D8A4C0EF24F058
:10497C00C3EF24F0010EC4EF24F0000E61EC32F012
:10498C0081EF25F012C100F113C101F1000E036F8C
:10499C00180E026F8BEC32F0520E01010025D96E0D
:1049AC00020E0121DA6EDECF06F1DECF07F1DECF8B
:1049BC0008F1DECF09F19CEC2AF006C1D1F007C159
:1049CC00D2F081EF25F012C100F113C101F1000EFC
:1049DC00036F180E026F8BEC32F0520E01010025A2
:1049EC00D96E020E0121DA6EDECF06F1DECF07F1B1
:1049FC00DECF08F1DECF09F19CEC2AF006C1CFF036
:104A0C0007C1D0F081EF25F012C100F113C101F103
:104A1C00000E036F180E026F8BEC32F0520E010178
:104A2C000025D96E020E0121DA6EDECF06F1DECF43
:104A3C0007F1DECF08F1DECF09F19CEC2AF006C1BC
:104A4C00CDF007C1CEF081EF25F012C100F113C1FA
:104A5C0001F1000E036F180E026F8BEC32F0520E48
:104A6C0001010025D96E020E0121DA6EDECFC1F0F4
:104A7C00DECFC2F0DECFC3F0DECFC4F081EF25F085
:104A8C0012C114F113C115F101011551000AD8B46A
:104A9C0052EF25F081EF25F01451000AD8B4DCEF69
:104AAC0023F0010AD8B4F7EF23F0030AD8B412EFBD
:104ABC0024F0010AD8B42DEF24F0070AD8B448EF3B
:104ACC0024F0010AD8B468EF24F0030AD8B49BEFA1
:104ADC0024F0010AD8B4C8EF24F00F0AD8B4E9EFD7
:104AEC0024F0010AD8B40AEF25F0030AD8B42BEF4E
:104AFC0025F081EF25F01200BFC137F1C0C138F1AC
:104B0C00C1C139F1C2C13AF127C137F128C138F11D
:104B1C0029C139F12AC13AF1810E01012B6FFF0E27
:104B2C002C6F37C12DF138C12EF139C12FF13AC19B
:104B3C0030F1180EA7EF25F0D89030332F332E33E9
:104B4C002D33E82EA2EF25F02D512B25356F000EBD
:104B5C002C21366F36BFBCEF25F0365109E1170E0C
:104B6C00355DD8A0BCEF25F0BEEF25F0C8EF25F0E1
:104B7C0027C127F128C128F129C129F12AC12AF11D
:104B8C008CEF26F036BFCDEF25F0CFEF25F040EFC0
:104B9C0026F035C12BF1FF0E2C6FFF0E2D6F7F0E03
:104BAC002E6F000E2F6F2B67DEEF25F0E6EF25F052
:104BBC002F352F332E332D332C332B2FD9EF25F0CC
:104BCC002CC131F12DC132F12EC133F12FC134F191
:104BDC000101315137152B6F325138152C6F335170
:104BEC0039152D6F34513A152E6F2B512C112D1167
:104BFC002E11D8A404EF26F006EF26F008EF26F0CD
:104C0C00BEEF25F037C12BF138C12CF139C12DF194
:104C1C003AC12EF1200E18EF26F0D8902E332D33FA
:104C2C002C332B33E82E13EF26F02B512C112D1196
:104C3C002E11D8B424EF26F026EF26F02EEF26F016
:104C4C0031513727325138233351392334513A23D8
:104C5C00311D2B6F321D2C6F331D2D6F341D2E6F9C
:104C6C002B5137172C5138172D5139172E513A1704
:104C7C0084EF26F037C12BF138C12CF139C12DF15D
:104C8C003AC12EF1200E50EF26F0D8902E332D3352
:104C9C002C332B33E82E4BEF26F02B512C112D11EE
:104CAC002E11D8A45CEF26F05EEF26F068EF26F00C
:104CBC00000E376F000E386F000E396F000E3A6F12
:104CCC0084EF26F0D89037352B6F38352C6F39356B
:104CDC002D6F3A352E6F2B512C112D112E11D8B45E
:104CEC007AEF26F07CEF26F084EF26F0000E376F7B
:104CFC00000E386F800E396FBF0E3A6F37C127F137
:104D0C0038C128F139C129F13AC12AF11200060043
:104D1C00F3CF95F0F4CF96F09DAA97EF26F099EF8C
:104D2C0026F090EF27F09EAA9EEF26F0A0EF26F03B
:104D3C0090EF27F0D4EC32F000019B6FBC51D8A45B
:104D4C00AAEF26F0ACEF26F0BCEF26F0610E9B1913
:104D5C00D8A4B3EF26F0B5EF26F090EF27F0010EB4
:104D6C00BC6F620EC9EC32F090EF27F0BB51D8A4A7
:104D7C00C2EF26F0C4EF26F0CAEF26F09BC0BAF0C3
:104D8C00010EBB6F90EF27F09B51946F936BBA5150
:104D9C009325B66F000E9421B76FC1C02DF0C2C021
:104DAC002EF0C3C02FF0C4C030F07F0E116E030E76
:104DBC00126E000E136E000E146EB6C001F0B7C06A
:104DCC0002F0000E02BEFF0E036E046E680E056E3E
:104DDC00010E066E000E076E000E086EBDEC2FF075
:104DEC0001C00DF002C00EF003C00FF004C010F0B3
:104DFC0016EC2AF00DC01BF00EC01CF00FC01DF0FD
:104E0C0010C01EF0010E72EC28F01BC029F01CC063
:104E1C002AF01DC02BF01EC02CF050EC1CF029C049
:104E2C0074F02AC075F02BC076F02CC077F020EC13
:104E3C002BF074C099F075C09AF000019951B45DD3
:104E4C00B551800A936F9A51800A9359D8B031EFBB
:104E5C0027F033EF27F037EF27F0640ED36F39EFDD
:104E6C0027F0690ED36FB451991907E1B5519A190E
:104E7C00D8A443EF27F045EF27F049EF27F0010EB8
:104E8C00B86F4BEF27F0000EB86F99C0B4F09AC012
:104E9C00B5F0000EBB6FB951D8B457EF27F059EFEE
:104EAC0027F090EF27F0B4C01BF0B5C01CF0000E3B
:104EBC001CBEFF0E1D6E1E6E010E72EC28F01BC088
:104ECC0070F01CC071F01DC072F01EC073F0C9C030
:104EDC006CF0CAC06DF0CBC06EF0CCC06FF07CEC47
:104EEC0031F06CC074F06DC075F06EC076F06FC0B0
:104EFC0077F020EC2BF074C097F075C098F097C049
:104F0C007EF098C07FF065EC1EF000017E51BE6E05
:104F1C0090EF27F096C0F4FF95C0F3FF5F9211005D
:104F2C000101086F01010851D8B49FEF27F0A1EFE0
:104F3C0027F0C3EF27F003BFA8EF27F0A6EF27F069
:104F4C00C3EF27F000C104F101C105F102C106F164
:104F5C0003C107F1041F051F061F071F042B000EBA
:104F6C0005230623072304C10AF105C10BF106C171
:104F7C000CF107C10DF1CBEF27F000C10AF101C113
:104F8C000BF102C10CF103C10DF100510111021121
:104F9C000311D8A4D4EF27F0D6EF27F0E0EF27F0D9
:104FAC00000E006F000E016F000E026F000E036FFB
:104FBC0071EF28F0960E096FEAEF27F0092BD890C5
:104FCC000D330C330B330A33000E0A15046F000E2D
:104FDC000B15056F000E0C15066FFE0E0D15076FE9
:104FEC000451051106110711D8A4FFEF27F001EFAA
:104FFC0028F0E4EF27F00FEF28F0092B010E0A2719
:10500C00000E0B230C230D23D8900D330C330B33D4
:10501C000A33000E0A15046F000E0B15056F000EF7
:10502C000C15066FFF0E0D15076F045105110611B7
:10503C000711D8A424EF28F026EF28F003EF28F06E
:10504C002EEF28F00907D8900A370B370C370D379D
:10505C000CBF33EF28F035EF28F03DEF28F0020EAF
:10506C0009613BEF28F03DEF28F028EF28F009B15B
:10507C0042EF28F044EF28F045EF28F00C9FD89031
:10508C00093309C104F1056B066B076B04C107F109
:10509C00066B056B046B04510A1305510B13065177
:1050AC000C1307510D130851D8B45FEF28F061EFC2
:1050BC0028F069EF28F003BF68EF28F066EF28F0BE
:1050CC0069EF28F00D8F0AC100F10BC101F10CC181
:1050DC0002F10DC103F11200236E2350D8B479EF05
:1050EC0028F07BEF28F09DEF28F01EBE82EF28F011
:1050FC0080EF28F09DEF28F01BC01FF01CC020F0A3
:10510C001DC021F01EC022F01F1E201E211E221EBB
:10511C001F2A000E2022212222221FC025F020C08F
:10512C0026F021C027F022C028F0A5EF28F01BC0E4
:10513C0025F01CC026F01DC027F01EC028F01B5007
:10514C001C101D101E10D8A4AEEF28F0B0EF28F0E4
:10515C00BAEF28F0000E1B6E000E1C6E000E1D6EBA
:10516C00000E1E6E4BEF29F0960E246EC4EF28F045
:10517C00242AD8902832273226322532000E2514C4
:10518C001F6E000E2614206E000E2714216EFE0ECC
:10519C002814226E1F50201021102210D8A4D9EFF1
:1051AC0028F0DBEF28F0BEEF28F0E9EF28F0242AF6
:1051BC00010E2526000E262227222822D8902832DE
:1051CC00273226322532000E25141F6E000E2614AF
:1051DC00206E000E2714216EFF0E2814226E1F5015
:1051EC00201021102210D8A4FEEF28F000EF29F097
:1051FC00DDEF28F008EF29F02406D8902536263666
:10520C002736283627BE0DEF29F00FEF29F017EFC0
:10521C0029F0020E246015EF29F017EF29F002EFA8
:10522C0029F024B01CEF29F01EEF29F01FEF29F014
:10523C00279ED890243224C01FF0206A216A226A4B
:10524C001FC022F0216A206A1F6A1F5025122050AD
:10525C00261221502712225028122350D8B439EF8D
:10526C0029F03BEF29F043EF29F01EBE42EF29F065
:10527C0040EF29F043EF29F0288E25C01BF026C003
:10528C001CF027C01DF028C01EF01200000E0101FA
:10529C00156F000E146F000E0E6F000E0D6F59EF90
:1052AC0029F0074B082B010E136F07C1F6FF08C13D
:1052BC00F7FF0800F550200AD8B467EF29F069EF22
:1052CC0029F086EF29F0F70E096FFF0E0A6F07C160
:1052DC00F6FF08C1F7FF0800F5500B6F0C6B095176
:1052EC000B270A510C230C5109E1050E0B5DD8A0BC
:1052FC0082EF29F084EF29F086EF29F0000E136F6E
:10530C0013C10FF1106B0F511011D8A490EF29F0AD
:10531C0092EF29F057EF29F09CEF29F0000E0E6F59
:10532C00010E0D6F074B082BD2EF29F007C1F6FFCA
:10533C0008C1F7FF0800F550096F0A6B0A51000A03
:10534C00D8B4ABEF29F0D2EF29F009512B0AD8B41D
:10535C0098EF29F0060AD8B494EF29F0D2EF29F08F
:10536C0014C100F115C101F1000E036F0A0E026F9A
:10537C008BEC32F007C1F6FF08C1F7FF0800F550BF
:10538C000101005F000E015B300E0025146F000E52
:10539C000121156F98EF29F0D00E096FFF0E0A6FDF
:1053AC0007C1F6FF08C1F7FF0800F5500B6F0C6B37
:1053BC0009510B270A510C230C510AE10A0E0B5D03
:1053CC00D8A0EBEF29F0EEEF29F0010EEFEF29F06A
:1053DC00000E116F126B11511211D8A4F8EF29F0B5
:1053EC00FAEF29F0B6EF29F00D510E11D8A401EF08
:1053FC002AF003EF2AF011EF2AF014C109F115C1BC
:10540C000AF1091F0A1F094B0A2B09C107F10AC12E
:10541C0008F115EF2AF014C107F115C108F11200BB
:10542C00000E166E14BE1FEF2AF01DEF2AF029EFA6
:10543C002AF0141E131E121E116C000E12221322BF
:10544C001422010E166E10BE30EF2AF02EEF2AF049
:10545C003AEF2AF0101E0F1E0E1E0D6C000E0E22BF
:10546C000F221022010E161A000E176E000E186E67
:10547C00000E196E000E1A6E11501210131014102B
:10548C00D8B44BEF2AF04DEF2AF083EF2AF0010E3F
:10549C00156E57EF2AF0D890113612361336143693
:1054AC00152A14AE5CEF2AF05EEF2AF051EF2AF0C9
:1054BC00D8901736183619361A3611500D5C125012
:1054CC000E5813500F5814501058D8A070EF2AF0E3
:1054DC0072EF2AF07BEF2AF011500D5E12500E5A2B
:1054EC0013500F5A1450105A1780D890143213328C
:1054FC0012321132152E5EEF2AF01650D8B489EF05
:10550C002AF08BEF2AF093EF2AF01A1E191E181EA0
:10551C00176C000E182219221A2217C00DF018C091
:10552C000EF019C00FF01AC010F01200010108356E
:10553C0009350F6F0F51D8A4A6EF2AF0A8EF2AF067
:10554C00B2EF2AF0000E066F000E076F000E086F08
:10555C00000E096F1FEF2BF006C10AF107C10BF10A
:10556C0008C10CF109C10DF1200EC2EF2AF0D89040
:10557C000D330C330B330A33E82EBDEF2AF00A51EE
:10558C000E6F088FFF0E0617FF0E0717FF0E08177A
:10559C00000E0917960E0F5F0FBFD9EF2AF0D7EF49
:1055AC002AF0EFEF2AF00F51800A970FD8B0E1EFF5
:1055BC002AF0E3EF2AF0E5EF2AF0A8EF2AF0D890D2
:1055CC0009330833073306330F3FE5EF2AF007EFB3
:1055DC002BF01F0E0F65F5EF2AF0F7EF2AF0FFEF17
:1055EC002AF0A8EF2AF0D890063707370837093782
:1055FC000F070F51D8A405EF2BF007EF2BF0F9EFA5
:10560C002AF00E51D8B40DEF2BF00FEF2BF017EF53
:10561C002BF0091F081F071F066D000E0723082318
:10562C00092306C106F107C107F108C108F109C138
:10563C0009F112000001763577357D6F7D51D8A4C4
:10564C002AEF2BF02CEF2BF036EF2BF0000E746FB3
:10565C00000E756F000E766F000E776FA3EF2BF0B8
:10566C0074C078F075C079F076C07AF077C07BF0B2
:10567C00200E46EF2BF0D8907B337A337933783386
:10568C00E82E41EF2BF078517C6F768FFF0E74175C
:10569C00FF0E7517FF0E7617000E7717960E7D5FAF
:1056AC007DBF5DEF2BF05BEF2BF073EF2BF07D519B
:1056BC00800A970FD8B065EF2BF067EF2BF069EFEE
:1056CC002BF02CEF2BF0D890773376337533743373
:1056DC007D3F69EF2BF08BEF2BF01F0E7D6579EF83
:1056EC002BF07BEF2BF083EF2BF02CEF2BF0D890E3
:1056FC0074377537763777377D077D51D8A489EFA6
:10570C002BF08BEF2BF07DEF2BF07C51D8B491EF7D
:10571C002BF093EF2BF09BEF2BF0771F761F751F61
:10572C00746D000E75237623772374C074F075C0E6
:10573C0075F076C076F077C077F01200000E01019C
:10574C001915216F000E1A15226F800E1B15236F71
:10575C007F0E1C15246F2151221123112411D8A462
:10576C00BAEF2BF0BCEF2BF0C4EF2BF0000E196F3F
:10577C00000E1A6F000E1B6F000E1C6F000E1D1515
:10578C00216F000E1E15226F800E1F15236F7F0ECA
:10579C002015246F2151221123112411D8A4D9EFE3
:1057AC002BF0DBEF2BF0E3EF2BF0000E1D6F000E58
:1057BC001E6F000E1F6F000E206F1CAFE8EF2BF05A
:1057CC00EAEF2BF0F3EF2BF0196D1A1FD8B01A2B50
:1057DC001B1FD8B01B2B800E1C5720AFF8EF2BF0E3
:1057EC00FAEF2BF003EF2CF01D6D1E1FD8B01E2B03
:1057FC001F1FD8B01F2B800E2057000E191B000E38
:10580C001A1B000E1B1B800E1C1B000E1D1B000EFA
:10581C001E1B000E1F1B800E201B1D51195D1E51DF
:10582C001A591F511B5920511C59D8B020EF2CF07C
:10583C0022EF2CF025EF2CF0D89026EF2CF0D8800E
:10584C001200A0C00AF1A1C00BF1A2C00CF1A3C0C0
:10585C000DF100C10AF101C10BF102C10CF103C140
:10586C000DF10AC104F10BC105F10CC106F10DC11A
:10587C0007F1180E48EF2CF00101D89007330633CE
:10588C0005330433E82E42EF2CF00451086F096BFA
:10589C0008510911D8A455EF2CF057EF2CF077EFE5
:1058AC002CF0D8900A35046F0B35056F0C35066F4C
:1058BC000D35076F0451051106110711D8A469EFB6
:1058CC002CF06BEF2CF071EF2CF0000E016F020E30
:1058DC00006FA6EF2CF0000E016F030E006FA6EF09
:1058EC002CF008290911D8A47EEF2CF080EF2CF0B5
:1058FC00A2EF2CF00AC104F10BC105F10CC106F1A9
:10590C000DC107F1090ED890043705370637073754
:10591C00E82E89EF2CF00451051106110711D8B4AB
:10592C009AEF2CF09DEF2CF0010E9EEF2CF0000E58
:10593C00006F016BA6EF2CF0000E016F040E006FD0
:10594C00120000C107F101C108F102C109F103C144
:10595C000AF101010407D8A00507042906E105296D
:10596C00D8A4BBEF2CF0BDEF2CF0CAEF2CF0000E3E
:10597C00016F000E006F12EF2DF0074B082B094B37
:10598C000A2B0407D8A0050707C1D9FF08C1DAFF05
:10599C00DF50D8B4D4EF2CF0D6EF2CF001EF2DF073
:1059AC0009C1F6FF0AC1F7FF0800F5500009D8B489
:1059BC00E2EF2CF0E4EF2CF001EF2DF00451051187
:1059CC00D8B4EBEF2CF0EDEF2CF001EF2DF007C17C
:1059DC00D9FF08C1DAFFDF50066F09C1F6FF0AC113
:1059EC00F7FF0800F5500619D8B4FFEF2CF001EFC3
:1059FC002DF0C3EF2CF007C1D9FF08C1DAFFDF503F
:105A0C00066F09C1F6FF0AC1F7FF0800F550065DE5
:105A1C00006F016BD8A0010712000001B0A119EFB3
:105A2C002DF01BEF2DF025EF2DF012C109F113C154
:105A3C000AF110C10BF111C10CF134EC31F0010180
:105A4C0015BF2BEF2DF02DEF2DF033EF2DF014C1F2
:105A5C0019F115C11AF137EF2DF0000E1A6F000E67
:105A6C00196F000E186F000E176F4AEF2DF0000E15
:105A7C00016F200E006F10C102F111C103F179EC1E
:105A8C002DF00101174B182B1951175D1851800A75
:105A9C00166F1A51800A1659D8A057EF2DF059EFEE
:105AAC002DF03DEF2DF00001B0B15FEF2DF061EF67
:105ABC002DF06BEF2DF012C109F113C10AF110C1D9
:105ACC000BF111C10CF134EC31F012C100F113C126
:105ADC0001F1BDEC31F0010119510025106F1A5183
:105AEC000121116F1200010102510311D8B481EF91
:105AFC002DF083EF2DF08CEF2DF002510311D8A473
:105B0C008AEF2DF08CEF2DF091EF2DF00051DDECA4
:105B1C0032F0DEEF2DF020EE04F00251D9260351C5
:105B2C00DA22DE50DE10D8B49EEF2DF0A0EF2DF06F
:105B3C00BBEF2DF020EE04F00251D9260351DA22EE
:105B4C0010EE02F00251E1260351E222DE50E65C37
:105B5C00E650800A086FDE50800A0859D8B0B9EFB9
:105B6C002DF0BBEF2DF0DEEF2DF020EE02F0025108
:105B7C00D9260351DA22DECF04F1DDCF05F102C1C3
:105B8C00D9FF03C1DAFFDECF06F1DDCF07F10451F7
:105B9C000625D96E05510721DA6E00C1DFFF20EE14
:105BAC0002F00251D9260351DA22DE2A000EDD2240
:105BBC001200000E0101056F03BFE9EF2DF0E7EFB6
:105BCC002DF0EFEF2DF0026D031FD8B0032B010E5B
:105BDC00056F01BFF6EF2DF0F4EF2DF0FCEF2DF07B
:105BEC00006D011FD8B0012B010E051B000E076FB5
:105BFC00000E066F02510311D8B407EF2EF009EF17
:105C0C002EF031EF2EF0010E046F11EF2EF0D89024
:105C1C0002370337042B03AF16EF2EF018EF2EF0DC
:105C2C000DEF2EF0D890063707370251005D035167
:105C3C000159D8A024EF2EF026EF2EF02BEF2EF0EA
:105C4C000251005F0351015B0681D890033302338C
:105C5C00042F18EF2EF00551D8B437EF2EF039EF92
:105C6C002EF03DEF2EF0066D071FD8B0072B06C1A6
:105C7C0000F107C101F11200000E0101056F01BF17
:105C8C004CEF2EF04AEF2EF052EF2EF0006D011F6C
:105C9C00D8B0012B010E056F03BF59EF2EF057EF53
:105CAC002EF05DEF2EF0026D031FD8B0032B0251C6
:105CBC000311D8B464EF2EF066EF2EF08AEF2EF0BD
:105CCC00010E046F6EEF2EF0D89002370337042BC1
:105CDC0003AF73EF2EF075EF2EF06AEF2EF002513A
:105CEC00005D03510159D8A07EEF2EF080EF2EF00D
:105CFC0084EF2EF00251005F0351015BD890033307
:105D0C000233042F75EF2EF00551D8B490EF2EF01E
:105D1C0092EF2EF096EF2EF0006D011FD8B0012BF4
:105D2C0000C100F101C101F11200000E01010615C4
:105D3C000E6F000E07150F6F800E0815106F7F0E7B
:105D4C000915116F0E510F1110111111D8A4B1EFCB
:105D5C002EF0B3EF2EF0BBEF2EF0000E066F000E00
:105D6C00076F000E086F000E096F000E0A150E6FFC
:105D7C00000E0B150F6F800E0C15106F7F0E0D158E
:105D8C00116F0E510F1110111111D8A4D0EF2EF06C
:105D9C00D2EF2EF0DAEF2EF0000E0A6F000E0B6F22
:105DAC00000E0C6F000E0D6F0A5106190FE10B510E
:105DBC0007190CE10C51081909E10D510919D8B456
:105DCC00EAEF2EF0ECEF2EF0EFEF2EF0D890F0EF94
:105DDC002EF0D8801200949C948E37C100F138C1FB
:105DEC0001F139C102F13AC103F1010E96EC27F031
:105DFC0000C112F101C113F102C114F103C115F17B
:105E0C00000E01010E6F240E0F6F740E106F480EF2
:105E1C00116F3FEC20F00EC127F10FC128F110C11A
:105E2C0029F111C12AF1000E01012B6F000E2C6F0C
:105E3C00800E2D6FBF0E2E6F41EC13F027C13BF17E
:105E4C0028C13CF129C13DF12AC13EF13BC106F10B
:105E5C003CC107F13DC108F13EC109F19CEC2AF0AF
:105E6C0001010651AF6E200EAC6E900EAB6EF28E31
:105E7C00F28C9D8A9D9812000101096F000E0101A0
:105E8C000A6F61EF2FF004510F0B80090A6F7EEF40
:105E9C002FF004510F0BC0090A6F7EEF2FF0045145
:105EAC000F0B94090A6F7EEF2FF004510F0BD409DE
:105EBC000A6F7EEF2FF00951076F086B0851000A2B
:105ECC00D8B46BEF2FF07EEF2FF00751010AD8B446
:105EDC0049EF2FF0030AD8B44FEF2FF0010AD8B4D2
:105EEC0055EF2FF0070AD8B45BEF2FF07EEF2FF0B1
:105EFC000A51B2EC30F005C102F106C103F148ECD5
:105F0C0032F012007A0EF66E650EF76E000EF86E19
:105F1C0000EEBDF010EE17F00900F5CFEEFFE550E6
:105F2C00E150FAE102EE50F011EE08F0EE6AE550A5
:105F3C00E150FCE1E250FAE102EE00F0500EEE6AA4
:105F4C00E806FDE101EEBFF0280EEE6AE806FDE181
:105F5C000001D46B00EE9CF0210EEE6AE806FDE128
:105F6C005F905F92000EF86E00013EEF04F0000EA1
:105F7C00096E000E0A6E000E0B6E000E0C6E01A068
:105F8C00CAEF2FF0CCEF2FF0D4EF2FF005500926ED
:105F9C0006500A2207500B2208500C22D8900536C6
:105FAC00063607360836D8900432033202320132F4
:105FBC000150021003100410D8A4E7EF2FF0E9EF02
:105FCC002FF0C5EF2FF009C001F00AC002F00BC092
:105FDC0003F00CC004F012009BC19FF19CC1A0F116
:105FEC00000E0101C46F000EC36F10EF30F099C1A9
:105FFC0083F19AC184F19F0E856F010E866F9DC14E
:10600C0087F19EC188F103EC18F001018351C3277D
:10601C008451C4239FC1F6FFA0C1F7FF0800F550BF
:10602C000009D8A41CEF30F01EEF30F0FDEF2FF07C
:10603C00C3C199F1C4C19AF11200BF0E0101086FDE
:10604C00FF0E096F06C10AF107C10BF108510A27AF
:10605C0009510B230B510AE11A0E0A5DD8A039EF36
:10606C0030F03CEF30F0010E3DEF30F0000E0C6FD5
:10607C000D6B0C510D11D8B446EF30F048EF30F0E9
:10608C004FEF30F0200E0611066F0751076F53EFDC
:10609C0030F006C106F107C107F1120006C10AF182
:1060AC0007C10BF104C10CF105C10DF101010A513D
:1060BC00086F0B51096F0A4B0B2B08C1F6FF09C176
:1060CC00F7FFF86A0CC1D9FF0DC1DAFF0C4B0D2B91
:1060DC00070EF76403D00800F55005D0F6CFE1FFAA
:1060EC00F7CFE2FFE750DF6EDF50D8A480EF30F03F
:1060FC0082EF30F05CEF30F012000101016F01C152
:10610C0000F1F00E010100178A500F0B00118A6E7E
:10611C008A808A8200F08A92060E0101006F300E8E
:10612C00E82EFED7002FFCD700F001C100F10101D1
:10613C00003BF00E00178A500F0B00118A6E8A82FA
:10614C0000F08A92100E0101006F940EE82EFED71B
:10615C00002FFCD700F012000101016F01C100F10A
:10616C00F00E010100178A500F0B00118A6E8A90F5
:10617C008A8200F08A92060E0101006F300EE82E22
:10618C00FED7002FFCD700F001C100F10101003B4C
:10619C00F00E00178A500F0B00118A6E8A8200F0E5
:1061AC008A92100E0101006F940EE82EFED7002F7C
:1061BC00FCD700F01200010E0101066F200E001931
:1061CC000111D8B4ECEF30F0EEEF30F007EF31F016
:1061DC00F70E026FFF0E036F00C104F101C105F150
:1061EC000251042703510523055109E1050E045DF5
:1061FC00D8A003EF31F005EF31F007EF31F0000ECE
:10620C00066F06C100F1016B1200A50E0101AB6F08
:10621C00010EAC6FA1C1ADF1A2C1AEF1000EB06F19
:10622C00000EAF6F000EB26F000EB16FAD0E996F16
:10623C00010E9A6FA3C19BF1A4C19CF1AB0E9D6F93
:10624C00010E9E6FF2EC2FF00101AF51A125D96E1A
:10625C00B051A221DA6E000EDF6E1200000E0101A9
:10626C000F6F000E0E6F47EF31F00DC100F1016B97
:10627C000BC102F10CC103F179EC2DF001010E4BB5
:10628C000F2B0E510925D96E0F510A21DA6EDF50F2
:10629C000D6F0D51D8A455EF31F057EF31F03BEFA6
:1062AC0031F01200000E01013B1B000E3C1B000ED6
:1062BC003D1B800E3E1B37C127F138C128F139C177
