:020000040000FA
:0400000007EF00F016
:10000800538236ED04F00CEF07F02F50800B386E5A
:100018002F502F243A6E2EAE14EF00F016EF00F09A
:1000280017EF00F03A803A50D8B41DEF00F01FEFF8
:1000380000F034EF00F03A28D8A425EF00F027EFBD
:1000480000F02FEF00F0000E2C6E000E2D6E000E4B
:100058002E6E000E2F6E2E8E000E2F6E3CEF00F0CF
:10006800000E2C6E000E2D6E000E2E6E000E2F6EE2
:100078003350800B396E38503918D8B446EF00F039
:1000880048EF00F049EF00F0388C33503324396ED4
:1000980032AE51EF00F053EF00F054EF00F039802A
:1000A8003950D8B45AEF00F05CEF00F071EF00F06F
:1000B8003928D8A462EF00F064EF00F06CEF00F08C
:1000C800000E306E000E316E000E326E000E336E72
:1000D800328E000E336E79EF00F0000E306E000E97
:1000E800316E000E326E000E336E3A50395CD8B065
:1000F80080EF00F082EF00F0A9EF00F038AC87EF56
:1001080000F089EF00F08BEF00F0800E381A3AC04B
:100118003BF039C03AF03BC039F02CC03BF030C05E
:100128002CF03BC030F02DC03BF031C02DF03BC06F
:1001380031F02EC03BF032C02EF03BC032F02FC061
:100148003BF033C02FF03BC033F0000E3B6E3A500B
:1001580039C034F0356A345E000E355A35BEBEEF0C
:1001680000F0355009E11A0E345CD8A0BEEF00F05B
:10017800C0EF00F0F7EF00F02C502D102E102F10CC
:10018800D8A4C9EF00F0CCEF00F0010ECDEF00F0DD
:10019800000E3B6E000E2C6E000E2D6E000E2E6EA5
:1001A800000E2F6E39C03AF000EF01F03BA0DFEFF0
:1001B80000F0E1EF00F0E7EF00F0D8903B300109E4
:1001C8003B6EE9EF00F0D8903B322CA0EEEF00F048
:1001D800F0EF00F0F1EF00F03B8E2F342F322E328B
:1001E8002D322C323A2A39503A5CD8A0FEEF00F072
:1001F80000EF01F0DAEF00F038BC05EF01F007EF8F
:1002080001F047EF01F03A50D8A40DEF01F00FEFDD
:1002180001F019EF01F0000E2C6E000E2D6E000E8D
:100228002E6E000E2F6E68EF02F030502C263150E3
:100238002D2232502E2233502F222FA026EF01F0EC
:1002480028EF01F0D4EF01F03BA02DEF01F02FEFE4
:1002580001F035EF01F0D8903B3001093B6E37EFE4
:1002680001F0D8903B322CA03CEF01F03EEF01F0BA
:100278003FEF01F03B8E2F342F322E322D322C32AD
:100288003A2AD4EF01F030502C5C31502D583250BE
:100298002E582F50800A346E3350800A3458D8B004
:1002A80058EF01F05AEF01F085EF01F02C50305C67
:1002B800346E2D503158356E2E503258366E2F50C0
:1002C8003358376EFF0E34242C6EFF0E35202D6EFA
:1002D800FF0E36202E6EFF0E37202F6E800E381A36
:1002E8003B6C3B50D8A47BEF01F07DEF01F08DEF24
:1002F80001F0010E2C26000E2D222E222F228DEF2A
:1003080001F030502C5E31502D5A32502E5A335055
:100318002F5A2C502D102E102F10D8A496EF01F024
:1003280098EF01F0CDEF01F03B50D8A49EEF01F01B
:10033800A0EF01F0CDEF01F0000E2C6E000E2D6E37
:10034800000E2E6E000E2F6E68EF02F0D8902C363D
:100358002D362E362F363BAEB4EF01F0B6EF01F056
:10036800B7EF01F02C803BA0BCEF01F0BEEF01F02D
:10037800C2EF01F0D8803B36C4EF01F0D8903B368D
:100388003A50D8B4CAEF01F0CCEF01F0CDEF01F04C
:100398003A062EAED2EF01F0D4EF01F0AAEF01F049
:1003A800000E396E3BAEDBEF01F0DDEF01F0F5EF4B
:1003B80001F03BC034F07F0E3416D8B4E6EF01F0FC
:1003C800E8EF01F0ECEF01F0010E396EF5EF01F006
:1003D8002CA0F1EF01F0F3EF01F0F5EF01F0E8EFF9
:1003E80001F03950D8B4FBEF01F0FDEF01F028EF30
:1003F80002F0010E2C26000E2D222E222F222FA0D5
:1004080008EF02F00AEF02F028EF02F02CC034F0F7
:100418002DC035F02EC036F02FC037F037343732C4
:1004280036323532343234C02CF035C02DF036C077
:100438002EF037C02FF03A28D8B425EF02F027EF76
:1004480002F028EF02F03A2A3A28D8B42EEF02F048
:1004580030EF02F038EF02F03A50D8A436EF02F04D
:1004680038EF02F04AEF02F0000E2C6E000E2D6EEF
:10047800000E2E6E000E2F6E3A50D8A446EF02F0F2
:1004880048EF02F04AEF02F0000E386E3AA04FEF44
:1004980002F051EF02F054EF02F02E8E55EF02F009
:1004A8002E9ED8903A302F6E38AE5DEF02F05FEF97
:1004B80002F060EF02F02F8E2CC02CF02DC02DF032
:1004C8002EC02EF02FC02FF012001650800B236E76
:1004D800165016242A6E15AE74EF02F076EF02F06D
:1004E80077EF02F02A802A50D8B47DEF02F07FEF30
:1004F80002F094EF02F02A28D8A485EF02F087EFE3
:1005080002F08FEF02F0000E136E000E146E000E54
:10051800156E000E166E158E000E166E9CEF02F00C
:10052800000E136E000E146E000E156E000E166E81
:100538001A50800B231A1A501A242B6E19AEA7EFE3
:1005480002F0A9EF02F0AAEF02F02B802B50D8B4EA
:10055800B0EF02F0B2EF02F0C7EF02F02B28D8A4F8
:10056800B8EF02F0BAEF02F0C2EF02F0000E176E19
:10057800000E186E000E196E000E1A6E198E000EFF
:100588001A6ECFEF02F0000E176E000E186E000EF6
:10059800196E000E1A6E1750181019101A10D8A4D8
:1005A800D8EF02F0DAEF02F0F2EF02F0000E136E6D
:1005B800000E146E000E156E000E166E800E1512CB
:1005C8007F0E16122350161213C013F014C014F025
:1005D80015C015F016C016F035EF04F02A50D8A44F
:1005E800F8EF02F0FAEF02F004EF03F0000E136EDA
:1005F800000E146E000E156E000E166E35EF04F028
:100608002B502AC01BF01C6A1B5E000E1C5A7F0E62
:100618001B24246E000E1C20256E13C01FF014C06E
:1006280020F015C021F016C022F0000E136E000E47
:10063800146E000E156E000E166E000E266E000E5D
:10064800276E000E286E000E296E000E2B6E65EFC9
:1006580003F02B50D8B433EF03F035EF03F04CEF31
:1006680003F0D8901F36203621362236D89013361C
:1006780014361536163629AE44EF03F046EF03F06C
:1006880047EF03F01380D8902636273628362936C8
:1006980017501F5C18502058195021581A502258CA
:1006A800D8A059EF03F05BEF03F064EF03F0298C57
:1006B80017501F5E1850205A1950215A1A50225AA2
:1006C8002B2A190E2B646BEF03F06DEF03F02DEF5F
:1006D80003F01F50201021102210D8B476EF03F039
:1006E80078EF03F090EF03F0268090EF03F0D890B6
:1006F800133614361536163629AE85EF03F087EF14
:1007080003F088EF03F01380D89026362736283672
:1007180029362406D8A0250615AE95EF03F097EFE5
:1007280003F07BEF03F0000E2B6E29AE9EEF03F073
:10073800A0EF03F0C4EF03F0FF0E26141B6EFF0EAC
:1007480027141C6EFF0E28141D6E7F0E29141E6EB2
:100758001B501C101D101E10D8B4B5EF03F0B7EFD6
:1007680003F0BBEF03F0010E2B6EC4EF03F013A0F0
:10077800C0EF03F0C2EF03F0C4EF03F0B7EF03F0EC
:100788002B50D8B4CAEF03F0CCEF03F0F0EF03F02E
:10079800010E1326000E14221522162216A0D7EFDA
:1007A80003F0D9EF03F0F0EF03F013C01BF014C00F
:1007B8001CF015C01DF016C01EF01E341E321D326E
:1007C8001C321B321BC013F01CC014F01DC015F0E6
:1007D8001EC016F0244A252A25BEFBEF03F025503B
:1007E80008E12428D8A0FBEF03F0FDEF03F008EFA1
:1007F80004F0000E256E2468000E136E000E146EB1
:10080800000E156E000E166E25BE15EF04F025506D
:1008180006E12404D8B013EF04F015EF04F023EF39
:1008280004F0000E256E000E246E000E136E000EEE
:10083800146E000E156E000E166E000E236E24C088
:100848002AF02AA02AEF04F02CEF04F02FEF04F08E
:10085800158E30EF04F0159ED8902A30166EE6EF0C
:1008680002F012000600F2AA3CEF04F03EEF04F09A
:1008780055EF04F0F2A443EF04F045EF04F055EF10
:1008880004F050C003F051C004F0035022EC07F00C
:10089800045022EC07F08270000ED76E000ED66E60
:1008A800F2949DAA5AEF04F05CEF04F072EF04F0A2
:1008B8009EAA61EF04F063EF04F072EF04F02DECF0
:1008C80007F0026E620E0218D8A46DEF04F06FEF05
:1008D80004F072EF04F0010E526EF28AF2A877EF7C
:1008E80004F079EF04F0C6EF04F0F2A27EEF04F012
:1008F80080EF04F0C6EF04F0F1BC85EF04F087EF59
:1009080004F08EEF04F081B28CEF04F08EEF04F067
:100918009CEF04F0F1AC93EF04F095EF04F0B2EF24
:1009280004F081B29AEF04F09CEF04F0B2EF04F007
:100938007F0E501809E1030E5118D8B4A6EF04F041
:10094800A8EF04F0ACEF04F0504A512AC4EF04F0C9
:10095800000E516E010E506EC4EF04F0505051104D
:10096800D8B4B9EF04F0BBEF04F0C0EF04F05006C0
:10097800D8A05106C4EF04F0030E516E7F0E506EDE
:10098800F17CF292F0A6CBEF04F0CDEF04F01AEF71
:1009980005F0F0A0D2EF04F0D4EF04F01AEF05F060
:1009A800F1BAD9EF04F0DBEF04F0E2EF04F081B024
:1009B800E0EF04F0E2EF04F0F0EF04F0F1AAE7EF63
:1009C80004F0E9EF04F004EF05F081B0EEEF04F075
:1009D800F0EF04F004EF05F050505110D8B4F7EFE1
:1009E80004F0F9EF04F0FEEF04F05006D8A0510629
:1009F80018EF05F0030E516E7F0E506E18EF05F0DC
:100A08007F0E501809E1030E5118D8B40EEF05F007
:100A180010EF05F014EF05F0504A512A18EF05F0D1
:100A2800000E516E010E506EF17AF0905392110043
:100A38000D6E0D50D8B423EF05F025EF05F047EF04
:100A480005F008BE2CEF05F02AEF05F047EF05F09A
:100A580005C009F006C00AF007C00BF008C00CF08A
:100A6800091E0A1E0B1E0C1E092A000E0A220B2242
:100A78000C2209C00FF00AC010F00BC011F00CC016
:100A880012F04FEF05F005C00FF006C010F007C0D8
:100A980011F008C012F00550061007100810D8A46D
:100AA80058EF05F05AEF05F064EF05F0000E056EFB
:100AB800000E066E000E076E000E086EF5EF05F0CC
:100AC800960E0E6E6EEF05F00E2AD8901232113285
:100AD80010320F32000E0F14096E000E10140A6E39
:100AE800000E11140B6EFE0E12140C6E09500A1033
:100AF8000B100C10D8A483EF05F085EF05F068EF14
:100B080005F093EF05F00E2A010E0F26000E1022B5
:100B180011221222D8901232113210320F32000EE6
:100B28000F14096E000E10140A6E000E11140B6ECD
:100B3800FF0E12140C6E09500A100B100C10D8A4DA
:100B4800A8EF05F0AAEF05F087EF05F0B2EF05F082
:100B58000E06D8900F3610361136123611BEB7EF82
:100B680005F0B9EF05F0C1EF05F0020E0E60BFEF1A
:100B780005F0C1EF05F0ACEF05F00EB0C6EF05F0DB
:100B8800C8EF05F0C9EF05F0119ED8900E320EC0DF
:100B980009F00A6A0B6A0C6A09C00CF00B6A0A6A47
:100BA800096A09500F120A5010120B5011120C50FA
:100BB80012120D50D8B4E3EF05F0E5EF05F0EDEFB4
:100BC80005F008BEECEF05F0EAEF05F0EDEF05F0F3
:100BD800128E0FC005F010C006F011C007F012C049
:100BE80008F01200073408340E6E0E50D8A4FFEF38
:100BF80005F001EF06F00BEF06F0000E056E000E93
:100C0800066E000E076E000E086E78EF06F005C03F
:100C180009F006C00AF007C00BF008C00CF0200E5F
:100C28001BEF06F0D8900C320B320A320932E82E4C
:100C380016EF06F009500D6E078EFF0E0516FF0E13
:100C48000616FF0E0716000E0816960E0E5E0EBE4E
:100C580032EF06F030EF06F048EF06F00E50800A4B
:100C6800970FD8B03AEF06F03CEF06F03EEF06F0EB
:100C780001EF06F0D89008320732063205320E3EF0
:100C88003EEF06F060EF06F01F0E0E644EEF06F022
:100C980050EF06F058EF06F001EF06F0D890053651
:100CA8000636073608360E060E50D8A45EEF06F054
:100CB80060EF06F052EF06F00D50D8B466EF06F07C
:100CC80068EF06F070EF06F0081E071E061E056C9A
:100CD800000E06220722082205C005F006C006F00D
:100CE80007C007F008C008F01200949C948E3CC01E
:100CF80005F03DC006F03EC007F03FC008F0010E09
:100D08001CEC05F005C017F006C018F007C019F074
:100D180008C01AF0000E136E240E146E740E156EB1
:100D2800480E166E69EC02F013C02CF014C02DF0BA
:100D380015C02EF016C02FF0000E306E000E316E6A
:100D4800800E326EBF0E336E09EC00F02CC040F0FE
:100D58002DC041F02EC042F02FC043F040C005F036
:100D680041C006F042C007F043C008F0F6EC05F0B9
:100D78000550AF6E200EAC6E900EAB6EF28EF28CFC
:100D88009D8A9D981200800E3C6E250E3D6E000EC9
:100D98003E6E000E3F6E79EC06F093809382C2900F
:100DA800C150F00B0509C16EF28EF288F292F086FE
:100DB800F090F18CF18AF28CF29AF294F184D58E4B
:100DC800D59CD59AD598D596D550F80B0109D56EEE
:100DD800000ED76E000ED66E94905250D8A4F7EF3E
:100DE80006F0F9EF06F0F1EF06F0610E17EC07F0E8
:100DF800030E456E080E446E770EE82EFED7442E7D
:100E0800FCD7452EFAD700F0F1EF06F007EF00F017
:100E180000EE46F00D0EEE6AE806FDE1539053929F
:100E28000001C7EF06F0056E05C0ADFFACA21FEFCD
:100E380007F021EF07F01AEF07F01200016E01C06A
:100E4800ADFFACA22AEF07F02CEF07F025EF07F073
:100E580012009EAA32EF07F034EF07F02DEF07F0EB
:040E6800AE50120076
:020000040020DA
:08000000FFFFFFFFFFFFFFFF00
:020000040030CA
:0E000000000C1F1EFF0381FF0FC00FE00F401A
:00000001FF
